{
  "contractName": "Kudos",
  "abi": [
    {
      "constant": true,
      "inputs": [
        {
          "name": "_interfaceId",
          "type": "bytes4"
        }
      ],
      "name": "supportsInterface",
      "outputs": [
        {
          "name": "",
          "type": "bool"
        }
      ],
      "payable": false,
      "stateMutability": "view",
      "type": "function"
    },
    {
      "constant": true,
      "inputs": [],
      "name": "name",
      "outputs": [
        {
          "name": "",
          "type": "string"
        }
      ],
      "payable": false,
      "stateMutability": "view",
      "type": "function"
    },
    {
      "constant": true,
      "inputs": [
        {
          "name": "_tokenId",
          "type": "uint256"
        }
      ],
      "name": "getApproved",
      "outputs": [
        {
          "name": "",
          "type": "address"
        }
      ],
      "payable": false,
      "stateMutability": "view",
      "type": "function"
    },
    {
      "constant": false,
      "inputs": [
        {
          "name": "_to",
          "type": "address"
        },
        {
          "name": "_tokenId",
          "type": "uint256"
        }
      ],
      "name": "approve",
      "outputs": [],
      "payable": false,
      "stateMutability": "nonpayable",
      "type": "function"
    },
    {
      "constant": true,
      "inputs": [],
      "name": "totalSupply",
      "outputs": [
        {
          "name": "",
          "type": "uint256"
        }
      ],
      "payable": false,
      "stateMutability": "view",
      "type": "function"
    },
    {
      "constant": true,
      "inputs": [],
      "name": "InterfaceId_ERC165",
      "outputs": [
        {
          "name": "",
          "type": "bytes4"
        }
      ],
      "payable": false,
      "stateMutability": "view",
      "type": "function"
    },
    {
      "constant": false,
      "inputs": [
        {
          "name": "_from",
          "type": "address"
        },
        {
          "name": "_to",
          "type": "address"
        },
        {
          "name": "_tokenId",
          "type": "uint256"
        }
      ],
      "name": "transferFrom",
      "outputs": [],
      "payable": false,
      "stateMutability": "nonpayable",
      "type": "function"
    },
    {
      "constant": true,
      "inputs": [
        {
          "name": "_owner",
          "type": "address"
        },
        {
          "name": "_index",
          "type": "uint256"
        }
      ],
      "name": "tokenOfOwnerByIndex",
      "outputs": [
        {
          "name": "",
          "type": "uint256"
        }
      ],
      "payable": false,
      "stateMutability": "view",
      "type": "function"
    },
    {
      "constant": false,
      "inputs": [
        {
          "name": "_from",
          "type": "address"
        },
        {
          "name": "_to",
          "type": "address"
        },
        {
          "name": "_tokenId",
          "type": "uint256"
        }
      ],
      "name": "safeTransferFrom",
      "outputs": [],
      "payable": false,
      "stateMutability": "nonpayable",
      "type": "function"
    },
    {
      "constant": true,
      "inputs": [
        {
          "name": "_tokenId",
          "type": "uint256"
        }
      ],
      "name": "exists",
      "outputs": [
        {
          "name": "",
          "type": "bool"
        }
      ],
      "payable": false,
      "stateMutability": "view",
      "type": "function"
    },
    {
      "constant": true,
      "inputs": [
        {
          "name": "_index",
          "type": "uint256"
        }
      ],
      "name": "tokenByIndex",
      "outputs": [
        {
          "name": "",
          "type": "uint256"
        }
      ],
      "payable": false,
      "stateMutability": "view",
      "type": "function"
    },
    {
      "constant": true,
      "inputs": [
        {
          "name": "_tokenId",
          "type": "uint256"
        }
      ],
      "name": "ownerOf",
      "outputs": [
        {
          "name": "",
          "type": "address"
        }
      ],
      "payable": false,
      "stateMutability": "view",
      "type": "function"
    },
    {
      "constant": true,
      "inputs": [
        {
          "name": "_owner",
          "type": "address"
        }
      ],
      "name": "balanceOf",
      "outputs": [
        {
          "name": "",
          "type": "uint256"
        }
      ],
      "payable": false,
      "stateMutability": "view",
      "type": "function"
    },
    {
      "constant": false,
      "inputs": [],
      "name": "renounceOwnership",
      "outputs": [],
      "payable": false,
      "stateMutability": "nonpayable",
      "type": "function"
    },
    {
      "constant": true,
      "inputs": [
        {
          "name": "",
          "type": "uint256"
        }
      ],
      "name": "kudos",
      "outputs": [
        {
          "name": "name",
          "type": "string"
        },
        {
          "name": "description",
          "type": "string"
        },
        {
          "name": "rarity",
          "type": "uint256"
        },
        {
          "name": "priceFinney",
          "type": "uint256"
        },
        {
          "name": "numClonesAllowed",
          "type": "uint256"
        },
        {
          "name": "numClonesInWild",
          "type": "uint256"
        },
        {
          "name": "tags",
          "type": "string"
        },
        {
          "name": "image",
          "type": "string"
        },
        {
          "name": "clonedFromId",
          "type": "uint256"
        },
        {
          "name": "sentFromAddress",
          "type": "address"
        }
      ],
      "payable": false,
      "stateMutability": "view",
      "type": "function"
    },
    {
      "constant": true,
      "inputs": [],
      "name": "owner",
      "outputs": [
        {
          "name": "",
          "type": "address"
        }
      ],
      "payable": false,
      "stateMutability": "view",
      "type": "function"
    },
    {
      "constant": true,
      "inputs": [],
      "name": "symbol",
      "outputs": [
        {
          "name": "",
          "type": "string"
        }
      ],
      "payable": false,
      "stateMutability": "view",
      "type": "function"
    },
    {
      "constant": false,
      "inputs": [
        {
          "name": "_to",
          "type": "address"
        },
        {
          "name": "_approved",
          "type": "bool"
        }
      ],
      "name": "setApprovalForAll",
      "outputs": [],
      "payable": false,
      "stateMutability": "nonpayable",
      "type": "function"
    },
    {
      "constant": false,
      "inputs": [
        {
          "name": "_from",
          "type": "address"
        },
        {
          "name": "_to",
          "type": "address"
        },
        {
          "name": "_tokenId",
          "type": "uint256"
        },
        {
          "name": "_data",
          "type": "bytes"
        }
      ],
      "name": "safeTransferFrom",
      "outputs": [],
      "payable": false,
      "stateMutability": "nonpayable",
      "type": "function"
    },
    {
      "constant": true,
      "inputs": [
        {
          "name": "_tokenId",
          "type": "uint256"
        }
      ],
      "name": "tokenURI",
      "outputs": [
        {
          "name": "",
          "type": "string"
        }
      ],
      "payable": false,
      "stateMutability": "view",
      "type": "function"
    },
    {
      "constant": true,
      "inputs": [
        {
          "name": "_owner",
          "type": "address"
        },
        {
          "name": "_operator",
          "type": "address"
        }
      ],
      "name": "isApprovedForAll",
      "outputs": [
        {
          "name": "",
          "type": "bool"
        }
      ],
      "payable": false,
      "stateMutability": "view",
      "type": "function"
    },
    {
      "constant": false,
      "inputs": [
        {
          "name": "_newOwner",
          "type": "address"
        }
      ],
      "name": "transferOwnership",
      "outputs": [],
      "payable": false,
      "stateMutability": "nonpayable",
      "type": "function"
    },
    {
      "anonymous": false,
      "inputs": [
        {
          "indexed": true,
          "name": "previousOwner",
          "type": "address"
        }
      ],
      "name": "OwnershipRenounced",
      "type": "event"
    },
    {
      "anonymous": false,
      "inputs": [
        {
          "indexed": true,
          "name": "previousOwner",
          "type": "address"
        },
        {
          "indexed": true,
          "name": "newOwner",
          "type": "address"
        }
      ],
      "name": "OwnershipTransferred",
      "type": "event"
    },
    {
      "anonymous": false,
      "inputs": [
        {
          "indexed": true,
          "name": "_from",
          "type": "address"
        },
        {
          "indexed": true,
          "name": "_to",
          "type": "address"
        },
        {
          "indexed": true,
          "name": "_tokenId",
          "type": "uint256"
        }
      ],
      "name": "Transfer",
      "type": "event"
    },
    {
      "anonymous": false,
      "inputs": [
        {
          "indexed": true,
          "name": "_owner",
          "type": "address"
        },
        {
          "indexed": true,
          "name": "_approved",
          "type": "address"
        },
        {
          "indexed": true,
          "name": "_tokenId",
          "type": "uint256"
        }
      ],
      "name": "Approval",
      "type": "event"
    },
    {
      "anonymous": false,
      "inputs": [
        {
          "indexed": true,
          "name": "_owner",
          "type": "address"
        },
        {
          "indexed": true,
          "name": "_operator",
          "type": "address"
        },
        {
          "indexed": false,
          "name": "_approved",
          "type": "bool"
        }
      ],
      "name": "ApprovalForAll",
      "type": "event"
    },
    {
      "constant": false,
      "inputs": [
        {
          "name": "name",
          "type": "string"
        },
        {
          "name": "description",
          "type": "string"
        },
        {
          "name": "rarity",
          "type": "uint256"
        },
        {
          "name": "priceFinney",
          "type": "uint256"
        },
        {
          "name": "numClonesAllowed",
          "type": "uint256"
        },
        {
          "name": "tags",
          "type": "string"
        },
        {
          "name": "image",
          "type": "string"
        }
      ],
      "name": "mint",
      "outputs": [
        {
          "name": "tokenId",
          "type": "uint256"
        }
      ],
      "payable": true,
      "stateMutability": "payable",
      "type": "function"
    },
    {
      "constant": false,
      "inputs": [
        {
          "name": "name",
          "type": "string"
        },
        {
          "name": "numClonesRequested",
          "type": "uint256"
        }
      ],
      "name": "clone",
      "outputs": [],
      "payable": true,
      "stateMutability": "payable",
      "type": "function"
    },
    {
      "constant": false,
      "inputs": [
        {
          "name": "name",
          "type": "string"
        },
        {
          "name": "numClonesRequested",
          "type": "uint256"
        },
        {
          "name": "receiver",
          "type": "address"
        }
      ],
      "name": "cloneAndTransfer",
      "outputs": [],
      "payable": true,
      "stateMutability": "payable",
      "type": "function"
    },
    {
      "constant": false,
      "inputs": [
        {
          "name": "owner",
          "type": "address"
        },
        {
          "name": "tokenId",
          "type": "uint256"
        }
      ],
      "name": "burnGen0",
      "outputs": [],
      "payable": true,
      "stateMutability": "payable",
      "type": "function"
    },
    {
      "constant": false,
      "inputs": [
        {
          "name": "owner",
          "type": "address"
        },
        {
          "name": "tokenId",
          "type": "uint256"
        }
      ],
      "name": "burn",
      "outputs": [],
      "payable": true,
      "stateMutability": "payable",
      "type": "function"
    },
    {
      "constant": true,
      "inputs": [
        {
          "name": "tokenId",
          "type": "uint256"
        }
      ],
      "name": "getKudosById",
      "outputs": [
        {
          "name": "name",
          "type": "string"
        },
        {
          "name": "description",
          "type": "string"
        },
        {
          "name": "rarity",
          "type": "uint256"
        },
        {
          "name": "priceFinney",
          "type": "uint256"
        },
        {
          "name": "numClonesAllowed",
          "type": "uint256"
        },
        {
          "name": "numClonesInWild",
          "type": "uint256"
        },
        {
          "name": "tags",
          "type": "string"
        },
        {
          "name": "image",
          "type": "string"
        },
        {
          "name": "clonedFromId",
          "type": "uint256"
        },
        {
          "name": "sentFromAddress",
          "type": "address"
        }
      ],
      "payable": false,
      "stateMutability": "view",
      "type": "function"
    },
    {
      "constant": true,
      "inputs": [
        {
          "name": "name",
          "type": "string"
        }
      ],
      "name": "getGen0TokenId",
      "outputs": [
        {
          "name": "",
          "type": "uint256"
        }
      ],
      "payable": false,
      "stateMutability": "view",
      "type": "function"
    }
  ],
  "bytecode": "0x60806040526040805190810160405280600a81526020017f4b75646f73546f6b656e000000000000000000000000000000000000000000008152506040805190810160405280600381526020017f4b444f0000000000000000000000000000000000000000000000000000000000815250620000ad6301ffc9a77c0100000000000000000000000000000000000000000000000000000000026200021c640100000000026401000000009004565b620000ea6380ac58cd7c0100000000000000000000000000000000000000000000000000000000026200021c640100000000026401000000009004565b62000127634f558e797c0100000000000000000000000000000000000000000000000000000000026200021c640100000000026401000000009004565b81600590805190602001906200013f929190620002da565b50806006908051906020019062000158929190620002da565b506200019663780e9d637c0100000000000000000000000000000000000000000000000000000000026200021c640100000000026401000000009004565b620001d3635b5e139f7c0100000000000000000000000000000000000000000000000000000000026200021c640100000000026401000000009004565b505033600c60006101000a81548173ffffffffffffffffffffffffffffffffffffffff021916908373ffffffffffffffffffffffffffffffffffffffff16021790555062000389565b63ffffffff7c010000000000000000000000000000000000000000000000000000000002817bffffffffffffffffffffffffffffffffffffffffffffffffffffffff1916141515156200026e57600080fd5b6001600080837bffffffffffffffffffffffffffffffffffffffffffffffffffffffff19167bffffffffffffffffffffffffffffffffffffffffffffffffffffffff1916815260200190815260200160002060006101000a81548160ff02191690831515021790555050565b828054600181600116156101000203166002900490600052602060002090601f016020900481019282601f106200031d57805160ff19168380011785556200034e565b828001600101855582156200034e579182015b828111156200034d57825182559160200191906001019062000330565b5b5090506200035d919062000361565b5090565b6200038691905b808211156200038257600081600090555060010162000368565b5090565b90565b6151e580620003996000396000f300608060405260043610610175576000357c0100000000000000000000000000000000000000000000000000000000900463ffffffff16806301ffc9a71461017a57806306fdde03146101de578063081812fc1461026e578063095ea7b3146102db57806318160ddd1461032857806319fa8f501461035357806323b872dd146103bc5780632f745c591461042957806339ffaa6d1461048a57806342842e0e146105ea5780634f558e79146106575780634f6ccce71461069c5780636352211e146106dd578063646d978b1461074a57806364b433f11461098a57806370a08231146109ca578063715018a614610a215780637f180db714610a385780638a94e43314610c785780638da5cb5b14610cfe57806395d89b4114610d555780639a17daf114610de55780639dc29fac14610e62578063a22cb46514610ea2578063b88d4fde14610ef1578063c87b56dd14610fa4578063daa6eb1d1461104a578063e985e9c5146110b0578063f2fde38b1461112b575b600080fd5b34801561018657600080fd5b506101c460048036038101908080357bffffffffffffffffffffffffffffffffffffffffffffffffffffffff1916906020019092919050505061116e565b604051808215151515815260200191505060405180910390f35b3480156101ea57600080fd5b506101f36111d5565b6040518080602001828103825283818151815260200191508051906020019080838360005b83811015610233578082015181840152602081019050610218565b50505050905090810190601f1680156102605780820380516001836020036101000a031916815260200191505b509250505060405180910390f35b34801561027a57600080fd5b5061029960048036038101908080359060200190929190505050611277565b604051808273ffffffffffffffffffffffffffffffffffffffff1673ffffffffffffffffffffffffffffffffffffffff16815260200191505060405180910390f35b3480156102e757600080fd5b50610326600480360381019080803573ffffffffffffffffffffffffffffffffffffffff169060200190929190803590602001909291905050506112b4565b005b34801561033457600080fd5b5061033d6113f9565b6040518082815260200191505060405180910390f35b34801561035f57600080fd5b50610368611406565b60405180827bffffffffffffffffffffffffffffffffffffffffffffffffffffffff19167bffffffffffffffffffffffffffffffffffffffffffffffffffffffff1916815260200191505060405180910390f35b3480156103c857600080fd5b50610427600480360381019080803573ffffffffffffffffffffffffffffffffffffffff169060200190929190803573ffffffffffffffffffffffffffffffffffffffff1690602001909291908035906020019092919050505061142d565b005b34801561043557600080fd5b50610474600480360381019080803573ffffffffffffffffffffffffffffffffffffffff16906020019092919080359060200190929190505050611538565b6040518082815260200191505060405180910390f35b6105d4600480360381019080803590602001908201803590602001908080601f0160208091040260200160405190810160405280939291908181526020018383808284378201915050505050509192919290803590602001908201803590602001908080601f0160208091040260200160405190810160405280939291908181526020018383808284378201915050505050509192919290803590602001909291908035906020019092919080359060200190929190803590602001908201803590602001908080601f0160208091040260200160405190810160405280939291908181526020018383808284378201915050505050509192919290803590602001908201803590602001908080601f01602080910402602001604051908101604052809392919081815260200183838082843782019150505050505091929192905050506115af565b6040518082815260200191505060405180910390f35b3480156105f657600080fd5b50610655600480360381019080803573ffffffffffffffffffffffffffffffffffffffff169060200190929190803573ffffffffffffffffffffffffffffffffffffffff16906020019092919080359060200190929190505050611b3a565b005b34801561066357600080fd5b5061068260048036038101908080359060200190929190505050611b5b565b604051808215151515815260200191505060405180910390f35b3480156106a857600080fd5b506106c760048036038101908080359060200190929190505050611bcd565b6040518082815260200191505060405180910390f35b3480156106e957600080fd5b5061070860048036038101908080359060200190929190505050611c05565b604051808273ffffffffffffffffffffffffffffffffffffffff1673ffffffffffffffffffffffffffffffffffffffff16815260200191505060405180910390f35b34801561075657600080fd5b5061077560048036038101908080359060200190929190505050611c83565b6040518080602001806020018b81526020018a815260200189815260200188815260200180602001806020018781526020018673ffffffffffffffffffffffffffffffffffffffff1673ffffffffffffffffffffffffffffffffffffffff16815260200185810385528f818151815260200191508051906020019080838360005b838110156108115780820151818401526020810190506107f6565b50505050905090810190601f16801561083e5780820380516001836020036101000a031916815260200191505b5085810384528e818151815260200191508051906020019080838360005b8381101561087757808201518184015260208101905061085c565b50505050905090810190601f1680156108a45780820380516001836020036101000a031916815260200191505b50858103835289818151815260200191508051906020019080838360005b838110156108dd5780820151818401526020810190506108c2565b50505050905090810190601f16801561090a5780820380516001836020036101000a031916815260200191505b50858103825288818151815260200191508051906020019080838360005b83811015610943578082015181840152602081019050610928565b50505050905090810190601f1680156109705780820380516001836020036101000a031916815260200191505b509e50505050505050505050505050505060405180910390f35b6109c8600480360381019080803573ffffffffffffffffffffffffffffffffffffffff1690602001909291908035906020019092919050505061202c565b005b3480156109d657600080fd5b50610a0b600480360381019080803573ffffffffffffffffffffffffffffffffffffffff16906020019092919050505061244e565b6040518082815260200191505060405180910390f35b348015610a2d57600080fd5b50610a366124d2565b005b348015610a4457600080fd5b50610a63600480360381019080803590602001909291905050506125d7565b6040518080602001806020018b81526020018a815260200189815260200188815260200180602001806020018781526020018673ffffffffffffffffffffffffffffffffffffffff1673ffffffffffffffffffffffffffffffffffffffff16815260200185810385528f818151815260200191508051906020019080838360005b83811015610aff578082015181840152602081019050610ae4565b50505050905090810190601f168015610b2c5780820380516001836020036101000a031916815260200191505b5085810384528e818151815260200191508051906020019080838360005b83811015610b65578082015181840152602081019050610b4a565b50505050905090810190601f168015610b925780820380516001836020036101000a031916815260200191505b50858103835289818151815260200191508051906020019080838360005b83811015610bcb578082015181840152602081019050610bb0565b50505050905090810190601f168015610bf85780820380516001836020036101000a031916815260200191505b50858103825288818151815260200191508051906020019080838360005b83811015610c31578082015181840152602081019050610c16565b50505050905090810190601f168015610c5e5780820380516001836020036101000a031916815260200191505b509e50505050505050505050505050505060405180910390f35b610cfc600480360381019080803590602001908201803590602001908080601f016020809104026020016040519081016040528093929190818152602001838380828437820191505050505050919291929080359060200190929190803573ffffffffffffffffffffffffffffffffffffffff1690602001909291905050506128ba565b005b348015610d0a57600080fd5b50610d13612fcd565b604051808273ffffffffffffffffffffffffffffffffffffffff1673ffffffffffffffffffffffffffffffffffffffff16815260200191505060405180910390f35b348015610d6157600080fd5b50610d6a612ff3565b6040518080602001828103825283818151815260200191508051906020019080838360005b83811015610daa578082015181840152602081019050610d8f565b50505050905090810190601f168015610dd75780820380516001836020036101000a031916815260200191505b509250505060405180910390f35b348015610df157600080fd5b50610e4c600480360381019080803590602001908201803590602001908080601f0160208091040260200160405190810160405280939291908181526020018383808284378201915050505050509192919290505050613095565b6040518082815260200191505060405180910390f35b610ea0600480360381019080803573ffffffffffffffffffffffffffffffffffffffff1690602001909291908035906020019092919050505061310a565b005b348015610eae57600080fd5b50610eef600480360381019080803573ffffffffffffffffffffffffffffffffffffffff169060200190929190803515159060200190929190505050613938565b005b348015610efd57600080fd5b50610fa2600480360381019080803573ffffffffffffffffffffffffffffffffffffffff169060200190929190803573ffffffffffffffffffffffffffffffffffffffff16906020019092919080359060200190929190803590602001908201803590602001908080601f0160208091040260200160405190810160405280939291908181526020018383808284378201915050505050509192919290505050613a74565b005b348015610fb057600080fd5b50610fcf60048036038101908080359060200190929190505050613a9c565b6040518080602001828103825283818151815260200191508051906020019080838360005b8381101561100f578082015181840152602081019050610ff4565b50505050905090810190601f16801561103c5780820380516001836020036101000a031916815260200191505b509250505060405180910390f35b6110ae600480360381019080803590602001908201803590602001908080601f016020809104026020016040519081016040528093929190818152602001838380828437820191505050505050919291929080359060200190929190505050613b65565b005b3480156110bc57600080fd5b50611111600480360381019080803573ffffffffffffffffffffffffffffffffffffffff169060200190929190803573ffffffffffffffffffffffffffffffffffffffff169060200190929190505050614277565b604051808215151515815260200191505060405180910390f35b34801561113757600080fd5b5061116c600480360381019080803573ffffffffffffffffffffffffffffffffffffffff16906020019092919050505061430b565b005b6000806000837bffffffffffffffffffffffffffffffffffffffffffffffffffffffff19167bffffffffffffffffffffffffffffffffffffffffffffffffffffffff1916815260200190815260200160002060009054906101000a900460ff169050919050565b606060058054600181600116156101000203166002900480601f01602080910402602001604051908101604052809291908181526020018280546001816001161561010002031660029004801561126d5780601f106112425761010080835404028352916020019161126d565b820191906000526020600020905b81548152906001019060200180831161125057829003601f168201915b5050505050905090565b60006002600083815260200190815260200160002060009054906101000a900473ffffffffffffffffffffffffffffffffffffffff169050919050565b60006112bf82611c05565b90508073ffffffffffffffffffffffffffffffffffffffff168373ffffffffffffffffffffffffffffffffffffffff16141515156112fc57600080fd5b8073ffffffffffffffffffffffffffffffffffffffff163373ffffffffffffffffffffffffffffffffffffffff16148061133c575061133b8133614277565b5b151561134757600080fd5b826002600084815260200190815260200160002060006101000a81548173ffffffffffffffffffffffffffffffffffffffff021916908373ffffffffffffffffffffffffffffffffffffffff160217905550818373ffffffffffffffffffffffffffffffffffffffff168273ffffffffffffffffffffffffffffffffffffffff167f8c5be1e5ebec7d5bd14f71427d1e84f3dd0314c0f7b2291e5b200ac8c7c3b92560405160405180910390a4505050565b6000600980549050905090565b6301ffc9a77c01000000000000000000000000000000000000000000000000000000000281565b6114373382614373565b151561144257600080fd5b600073ffffffffffffffffffffffffffffffffffffffff168373ffffffffffffffffffffffffffffffffffffffff161415151561147e57600080fd5b600073ffffffffffffffffffffffffffffffffffffffff168273ffffffffffffffffffffffffffffffffffffffff16141515156114ba57600080fd5b6114c48382614408565b6114ce838261450b565b6114d882826146c7565b808273ffffffffffffffffffffffffffffffffffffffff168473ffffffffffffffffffffffffffffffffffffffff167fddf252ad1be2c89b69c2b068fc378daa952ba7f163c4a11628f55a4df523b3ef60405160405180910390a4505050565b60006115438361244e565b8210151561155057600080fd5b600760008473ffffffffffffffffffffffffffffffffffffffff1673ffffffffffffffffffffffffffffffffffffffff1681526020019081526020016000208281548110151561159c57fe5b9060005260206000200154905092915050565b60008060006115bc615036565b6115c4615036565b600c60009054906101000a900473ffffffffffffffffffffffffffffffffffffffff1673ffffffffffffffffffffffffffffffffffffffff163373ffffffffffffffffffffffffffffffffffffffff1614151561162057600080fd5b6000600e8d6040518082805190602001908083835b60208310151561165a5780518252602082019150602081019050602083039250611635565b6001836020036101000a03801982511681845116808217855250505050505090500191505090815260200160405180910390205414151561169a57600080fd5b6000935060009250610140604051908101604052808d81526020018c81526020018b81526020018a81526020018981526020018581526020018881526020018781526020018481526020013373ffffffffffffffffffffffffffffffffffffffff1681525091506000600d80549050141561196857610140604051908101604052806040805190810160405280600581526020017f64756d6d7900000000000000000000000000000000000000000000000000000081525081526020016040805190810160405280600581526020017f64756d6d790000000000000000000000000000000000000000000000000000008152508152602001600081526020016000815260200160008152602001600081526020016040805190810160405280600581526020017f64756d6d7900000000000000000000000000000000000000000000000000000081525081526020016040805190810160405280600581526020017f64756d6d790000000000000000000000000000000000000000000000000000008152508152602001600081526020013373ffffffffffffffffffffffffffffffffffffffff168152509050600d819080600181540180825580915050906001820390600052602060002090600a02016000909192909190915060008201518160000190805190602001906118919291906150a0565b5060208201518160010190805190602001906118ae9291906150a0565b5060408201518160020155606082015181600301556080820151816004015560a0820151816005015560c08201518160060190805190602001906118f39291906150a0565b5060e08201518160070190805190602001906119109291906150a0565b5061010082015181600801556101208201518160090160006101000a81548173ffffffffffffffffffffffffffffffffffffffff021916908373ffffffffffffffffffffffffffffffffffffffff1602179055505050505b6001600d839080600181540180825580915050906001820390600052602060002090600a02016000909192909190915060008201518160000190805190602001906119b49291906150a0565b5060208201518160010190805190602001906119d19291906150a0565b5060408201518160020155606082015181600301556080820151816004015560a0820151816005015560c0820151816006019080519060200190611a169291906150a0565b5060e0820151816007019080519060200190611a339291906150a0565b5061010082015181600801556101208201518160090160006101000a81548173ffffffffffffffffffffffffffffffffffffffff021916908373ffffffffffffffffffffffffffffffffffffffff160217905550505003945084600d86815481101515611a9c57fe5b90600052602060002090600a020160080181905550611abb338661479e565b84600e8d6040518082805190602001908083835b602083101515611af45780518252602082019150602081019050602083039250611acf565b6001836020036101000a03801982511681845116808217855250505050505090500191505090815260200160405180910390208190555050505050979650505050505050565b611b568383836020604051908101604052806000815250613a74565b505050565b6000806001600084815260200190815260200160002060009054906101000a900473ffffffffffffffffffffffffffffffffffffffff169050600073ffffffffffffffffffffffffffffffffffffffff168173ffffffffffffffffffffffffffffffffffffffff161415915050919050565b6000611bd76113f9565b82101515611be457600080fd5b600982815481101515611bf357fe5b90600052602060002001549050919050565b6000806001600084815260200190815260200160002060009054906101000a900473ffffffffffffffffffffffffffffffffffffffff169050600073ffffffffffffffffffffffffffffffffffffffff168173ffffffffffffffffffffffffffffffffffffffff1614151515611c7a57600080fd5b80915050919050565b606080600080600080606080600080611c9a615036565b600d8c815481101515611ca957fe5b90600052602060002090600a02016101406040519081016040529081600082018054600181600116156101000203166002900480601f016020809104026020016040519081016040528092919081815260200182805460018160011615610100020316600290048015611d5d5780601f10611d3257610100808354040283529160200191611d5d565b820191906000526020600020905b815481529060010190602001808311611d4057829003601f168201915b50505050508152602001600182018054600181600116156101000203166002900480601f016020809104026020016040519081016040528092919081815260200182805460018160011615610100020316600290048015611dff5780601f10611dd457610100808354040283529160200191611dff565b820191906000526020600020905b815481529060010190602001808311611de257829003601f168201915b5050505050815260200160028201548152602001600382015481526020016004820154815260200160058201548152602001600682018054600181600116156101000203166002900480601f016020809104026020016040519081016040528092919081815260200182805460018160011615610100020316600290048015611ec95780601f10611e9e57610100808354040283529160200191611ec9565b820191906000526020600020905b815481529060010190602001808311611eac57829003601f168201915b50505050508152602001600782018054600181600116156101000203166002900480601f016020809104026020016040519081016040528092919081815260200182805460018160011615610100020316600290048015611f6b5780601f10611f4057610100808354040283529160200191611f6b565b820191906000526020600020905b815481529060010190602001808311611f4e57829003601f168201915b50505050508152602001600882015481526020016009820160009054906101000a900473ffffffffffffffffffffffffffffffffffffffff1673ffffffffffffffffffffffffffffffffffffffff1673ffffffffffffffffffffffffffffffffffffffff1681525050905080600001519a50806020015199508060400151985080606001519750806080015196508060a0015195508060c0015194508060e00151935080610100015192508061012001519150509193959799509193959799565b612034615036565b600c60009054906101000a900473ffffffffffffffffffffffffffffffffffffffff1673ffffffffffffffffffffffffffffffffffffffff163373ffffffffffffffffffffffffffffffffffffffff1614151561209057600080fd5b600d8281548110151561209f57fe5b90600052602060002090600a02016101406040519081016040529081600082018054600181600116156101000203166002900480601f0160208091040260200160405190810160405280929190818152602001828054600181600116156101000203166002900480156121535780601f1061212857610100808354040283529160200191612153565b820191906000526020600020905b81548152906001019060200180831161213657829003601f168201915b50505050508152602001600182018054600181600116156101000203166002900480601f0160208091040260200160405190810160405280929190818152602001828054600181600116156101000203166002900480156121f55780601f106121ca576101008083540402835291602001916121f5565b820191906000526020600020905b8154815290600101906020018083116121d857829003601f168201915b5050505050815260200160028201548152602001600382015481526020016004820154815260200160058201548152602001600682018054600181600116156101000203166002900480601f0160208091040260200160405190810160405280929190818152602001828054600181600116156101000203166002900480156122bf5780601f10612294576101008083540402835291602001916122bf565b820191906000526020600020905b8154815290600101906020018083116122a257829003601f168201915b50505050508152602001600782018054600181600116156101000203166002900480601f0160208091040260200160405190810160405280929190818152602001828054600181600116156101000203166002900480156123615780601f1061233657610100808354040283529160200191612361565b820191906000526020600020905b81548152906001019060200180831161234457829003601f168201915b50505050508152602001600882015481526020016009820160009054906101000a900473ffffffffffffffffffffffffffffffffffffffff1673ffffffffffffffffffffffffffffffffffffffff1673ffffffffffffffffffffffffffffffffffffffff16815250509050600e81600001516040518082805190602001908083835b60208310151561240857805182526020820191506020810190506020830392506123e3565b6001836020036101000a03801982511681845116808217855250505050505090500191505090815260200160405180910390206000905561244983836147f5565b505050565b60008073ffffffffffffffffffffffffffffffffffffffff168273ffffffffffffffffffffffffffffffffffffffff161415151561248b57600080fd5b600360008373ffffffffffffffffffffffffffffffffffffffff1673ffffffffffffffffffffffffffffffffffffffff168152602001908152602001600020549050919050565b600c60009054906101000a900473ffffffffffffffffffffffffffffffffffffffff1673ffffffffffffffffffffffffffffffffffffffff163373ffffffffffffffffffffffffffffffffffffffff1614151561252e57600080fd5b600c60009054906101000a900473ffffffffffffffffffffffffffffffffffffffff1673ffffffffffffffffffffffffffffffffffffffff167ff8df31144d9c2f0f6b59d69b8b98abd5459d07f2742c4df920b25aae33c6482060405160405180910390a26000600c60006101000a81548173ffffffffffffffffffffffffffffffffffffffff021916908373ffffffffffffffffffffffffffffffffffffffff160217905550565b600d818154811015156125e657fe5b90600052602060002090600a0201600091509050806000018054600181600116156101000203166002900480601f0160208091040260200160405190810160405280929190818152602001828054600181600116156101000203166002900480156126925780601f1061266757610100808354040283529160200191612692565b820191906000526020600020905b81548152906001019060200180831161267557829003601f168201915b505050505090806001018054600181600116156101000203166002900480601f0160208091040260200160405190810160405280929190818152602001828054600181600116156101000203166002900480156127305780601f1061270557610100808354040283529160200191612730565b820191906000526020600020905b81548152906001019060200180831161271357829003601f168201915b505050505090806002015490806003015490806004015490806005015490806006018054600181600116156101000203166002900480601f0160208091040260200160405190810160405280929190818152602001828054600181600116156101000203166002900480156127e65780601f106127bb576101008083540402835291602001916127e6565b820191906000526020600020905b8154815290600101906020018083116127c957829003601f168201915b505050505090806007018054600181600116156101000203166002900480601f0160208091040260200160405190810160405280929190818152602001828054600181600116156101000203166002900480156128845780601f1061285957610100808354040283529160200191612884565b820191906000526020600020905b81548152906001019060200180831161286757829003601f168201915b5050505050908060080154908060090160009054906101000a900473ffffffffffffffffffffffffffffffffffffffff1690508a565b60006128c4615036565b60006128ce615036565b6000600e886040518082805190602001908083835b60208310151561290857805182526020820191506020810190506020830392506128e3565b6001836020036101000a0380198251168184511680821785525050505050509050019150509081526020016040518091039020549450600d8581548110151561294d57fe5b90600052602060002090600a02016101406040519081016040529081600082018054600181600116156101000203166002900480601f016020809104026020016040519081016040528092919081815260200182805460018160011615610100020316600290048015612a015780601f106129d657610100808354040283529160200191612a01565b820191906000526020600020905b8154815290600101906020018083116129e457829003601f168201915b50505050508152602001600182018054600181600116156101000203166002900480601f016020809104026020016040519081016040528092919081815260200182805460018160011615610100020316600290048015612aa35780601f10612a7857610100808354040283529160200191612aa3565b820191906000526020600020905b815481529060010190602001808311612a8657829003601f168201915b5050505050815260200160028201548152602001600382015481526020016004820154815260200160058201548152602001600682018054600181600116156101000203166002900480601f016020809104026020016040519081016040528092919081815260200182805460018160011615610100020316600290048015612b6d5780601f10612b4257610100808354040283529160200191612b6d565b820191906000526020600020905b815481529060010190602001808311612b5057829003601f168201915b50505050508152602001600782018054600181600116156101000203166002900480601f016020809104026020016040519081016040528092919081815260200182805460018160011615610100020316600290048015612c0f5780601f10612be457610100808354040283529160200191612c0f565b820191906000526020600020905b815481529060010190602001808311612bf257829003601f168201915b50505050508152602001600882015481526020016009820160009054906101000a900473ffffffffffffffffffffffffffffffffffffffff1673ffffffffffffffffffffffffffffffffffffffff1673ffffffffffffffffffffffffffffffffffffffff168152505093508360800151878560a001510111151515612c9357600080fd5b66038d7ea4c6800084606001510234141515612cae57600080fd5b868460a001818151019150818152505083600d86815481101515612cce57fe5b90600052602060002090600a02016000820151816000019080519060200190612cf89291906150a0565b506020820151816001019080519060200190612d159291906150a0565b5060408201518160020155606082015181600301556080820151816004015560a0820151816005015560c0820151816006019080519060200190612d5a9291906150a0565b5060e0820151816007019080519060200190612d779291906150a0565b5061010082015181600801556101208201518160090160006101000a81548173ffffffffffffffffffffffffffffffffffffffff021916908373ffffffffffffffffffffffffffffffffffffffff160217905550905050600092505b86831015612fc35783600001518260000181905250836020015182602001819052508360400151826040018181525050836060015182606001818152505060008260800181815250508360a001518260a00181815250508360c001518260c001819052508360e001518260e0018190525084826101000181815250503382610120019073ffffffffffffffffffffffffffffffffffffffff16908173ffffffffffffffffffffffffffffffffffffffff16815250506001600d839080600181540180825580915050906001820390600052602060002090600a0201600090919290919091506000820151816000019080519060200190612ed49291906150a0565b506020820151816001019080519060200190612ef19291906150a0565b5060408201518160020155606082015181600301556080820151816004015560a0820151816005015560c0820151816006019080519060200190612f369291906150a0565b5060e0820151816007019080519060200190612f539291906150a0565b5061010082015181600801556101208201518160090160006101000a81548173ffffffffffffffffffffffffffffffffffffffff021916908373ffffffffffffffffffffffffffffffffffffffff1602179055505050039050612fb6868261479e565b8280600101935050612dd3565b5050505050505050565b600c60009054906101000a900473ffffffffffffffffffffffffffffffffffffffff1681565b606060068054600181600116156101000203166002900480601f01602080910402602001604051908101604052809291908181526020018280546001816001161561010002031660029004801561308b5780601f106130605761010080835404028352916020019161308b565b820191906000526020600020905b81548152906001019060200180831161306e57829003601f168201915b5050505050905090565b6000600e826040518082805190602001908083835b6020831015156130cf57805182526020820191506020810190506020830392506130aa565b6001836020036101000a0380198251168184511680821785525050505050509050019150509081526020016040518091039020549050919050565b613112615036565b600061311c615036565b600d8481548110151561312b57fe5b90600052602060002090600a02016101406040519081016040529081600082018054600181600116156101000203166002900480601f0160208091040260200160405190810160405280929190818152602001828054600181600116156101000203166002900480156131df5780601f106131b4576101008083540402835291602001916131df565b820191906000526020600020905b8154815290600101906020018083116131c257829003601f168201915b50505050508152602001600182018054600181600116156101000203166002900480601f0160208091040260200160405190810160405280929190818152602001828054600181600116156101000203166002900480156132815780601f1061325657610100808354040283529160200191613281565b820191906000526020600020905b81548152906001019060200180831161326457829003601f168201915b5050505050815260200160028201548152602001600382015481526020016004820154815260200160058201548152602001600682018054600181600116156101000203166002900480601f01602080910402602001604051908101604052809291908181526020018280546001816001161561010002031660029004801561334b5780601f106133205761010080835404028352916020019161334b565b820191906000526020600020905b81548152906001019060200180831161332e57829003601f168201915b50505050508152602001600782018054600181600116156101000203166002900480601f0160208091040260200160405190810160405280929190818152602001828054600181600116156101000203166002900480156133ed5780601f106133c2576101008083540402835291602001916133ed565b820191906000526020600020905b8154815290600101906020018083116133d057829003601f168201915b50505050508152602001600882015481526020016009820160009054906101000a900473ffffffffffffffffffffffffffffffffffffffff1673ffffffffffffffffffffffffffffffffffffffff1673ffffffffffffffffffffffffffffffffffffffff16815250509250600e83600001516040518082805190602001908083835b602083101515613494578051825260208201915060208101905060208303925061346f565b6001836020036101000a0380198251168184511680821785525050505050509050019150509081526020016040518091039020549150600d828154811015156134d957fe5b90600052602060002090600a02016101406040519081016040529081600082018054600181600116156101000203166002900480601f01602080910402602001604051908101604052809291908181526020018280546001816001161561010002031660029004801561358d5780601f106135625761010080835404028352916020019161358d565b820191906000526020600020905b81548152906001019060200180831161357057829003601f168201915b50505050508152602001600182018054600181600116156101000203166002900480601f01602080910402602001604051908101604052809291908181526020018280546001816001161561010002031660029004801561362f5780601f106136045761010080835404028352916020019161362f565b820191906000526020600020905b81548152906001019060200180831161361257829003601f168201915b5050505050815260200160028201548152602001600382015481526020016004820154815260200160058201548152602001600682018054600181600116156101000203166002900480601f0160208091040260200160405190810160405280929190818152602001828054600181600116156101000203166002900480156136f95780601f106136ce576101008083540402835291602001916136f9565b820191906000526020600020905b8154815290600101906020018083116136dc57829003601f168201915b50505050508152602001600782018054600181600116156101000203166002900480601f01602080910402602001604051908101604052809291908181526020018280546001816001161561010002031660029004801561379b5780601f106137705761010080835404028352916020019161379b565b820191906000526020600020905b81548152906001019060200180831161377e57829003601f168201915b50505050508152602001600882015481526020016009820160009054906101000a900473ffffffffffffffffffffffffffffffffffffffff1673ffffffffffffffffffffffffffffffffffffffff1673ffffffffffffffffffffffffffffffffffffffff1681525050905060018160a001818151039150818152505080600d8381548110151561382757fe5b90600052602060002090600a020160008201518160000190805190602001906138519291906150a0565b50602082015181600101908051906020019061386e9291906150a0565b5060408201518160020155606082015181600301556080820151816004015560a0820151816005015560c08201518160060190805190602001906138b39291906150a0565b5060e08201518160070190805190602001906138d09291906150a0565b5061010082015181600801556101208201518160090160006101000a81548173ffffffffffffffffffffffffffffffffffffffff021916908373ffffffffffffffffffffffffffffffffffffffff16021790555090505061393185856147f5565b5050505050565b3373ffffffffffffffffffffffffffffffffffffffff168273ffffffffffffffffffffffffffffffffffffffff161415151561397357600080fd5b80600460003373ffffffffffffffffffffffffffffffffffffffff1673ffffffffffffffffffffffffffffffffffffffff16815260200190815260200160002060008473ffffffffffffffffffffffffffffffffffffffff1673ffffffffffffffffffffffffffffffffffffffff16815260200190815260200160002060006101000a81548160ff0219169083151502179055508173ffffffffffffffffffffffffffffffffffffffff163373ffffffffffffffffffffffffffffffffffffffff167f17307eab39ab6107e8899845ad3d59bd9653f200f220920489ca2b5937696c3183604051808215151515815260200191505060405180910390a35050565b613a7f84848461142d565b613a8b8484848461492d565b1515613a9657600080fd5b50505050565b6060613aa782611b5b565b1515613ab257600080fd5b600b60008381526020019081526020016000208054600181600116156101000203166002900480601f016020809104026020016040519081016040528092919081815260200182805460018160011615610100020316600290048015613b595780601f10613b2e57610100808354040283529160200191613b59565b820191906000526020600020905b815481529060010190602001808311613b3c57829003601f168201915b50505050509050919050565b6000613b6f615036565b6000613b79615036565b6000600e876040518082805190602001908083835b602083101515613bb35780518252602082019150602081019050602083039250613b8e565b6001836020036101000a0380198251168184511680821785525050505050509050019150509081526020016040518091039020549450600d85815481101515613bf857fe5b90600052602060002090600a02016101406040519081016040529081600082018054600181600116156101000203166002900480601f016020809104026020016040519081016040528092919081815260200182805460018160011615610100020316600290048015613cac5780601f10613c8157610100808354040283529160200191613cac565b820191906000526020600020905b815481529060010190602001808311613c8f57829003601f168201915b50505050508152602001600182018054600181600116156101000203166002900480601f016020809104026020016040519081016040528092919081815260200182805460018160011615610100020316600290048015613d4e5780601f10613d2357610100808354040283529160200191613d4e565b820191906000526020600020905b815481529060010190602001808311613d3157829003601f168201915b5050505050815260200160028201548152602001600382015481526020016004820154815260200160058201548152602001600682018054600181600116156101000203166002900480601f016020809104026020016040519081016040528092919081815260200182805460018160011615610100020316600290048015613e185780601f10613ded57610100808354040283529160200191613e18565b820191906000526020600020905b815481529060010190602001808311613dfb57829003601f168201915b50505050508152602001600782018054600181600116156101000203166002900480601f016020809104026020016040519081016040528092919081815260200182805460018160011615610100020316600290048015613eba5780601f10613e8f57610100808354040283529160200191613eba565b820191906000526020600020905b815481529060010190602001808311613e9d57829003601f168201915b50505050508152602001600882015481526020016009820160009054906101000a900473ffffffffffffffffffffffffffffffffffffffff1673ffffffffffffffffffffffffffffffffffffffff1673ffffffffffffffffffffffffffffffffffffffff168152505093508360800151868560a001510111151515613f3e57600080fd5b66038d7ea4c6800084606001510234141515613f5957600080fd5b858460a001818151019150818152505083600d86815481101515613f7957fe5b90600052602060002090600a02016000820151816000019080519060200190613fa39291906150a0565b506020820151816001019080519060200190613fc09291906150a0565b5060408201518160020155606082015181600301556080820151816004015560a0820151816005015560c08201518160060190805190602001906140059291906150a0565b5060e08201518160070190805190602001906140229291906150a0565b5061010082015181600801556101208201518160090160006101000a81548173ffffffffffffffffffffffffffffffffffffffff021916908373ffffffffffffffffffffffffffffffffffffffff160217905550905050600092505b8583101561426e5783600001518260000181905250836020015182602001819052508360400151826040018181525050836060015182606001818152505060008260800181815250508360a001518260a00181815250508360c001518260c001819052508360e001518260e0018190525084826101000181815250503382610120019073ffffffffffffffffffffffffffffffffffffffff16908173ffffffffffffffffffffffffffffffffffffffff16815250506001600d839080600181540180825580915050906001820390600052602060002090600a020160009091929091909150600082015181600001908051906020019061417f9291906150a0565b50602082015181600101908051906020019061419c9291906150a0565b5060408201518160020155606082015181600301556080820151816004015560a0820151816005015560c08201518160060190805190602001906141e19291906150a0565b5060e08201518160070190805190602001906141fe9291906150a0565b5061010082015181600801556101208201518160090160006101000a81548173ffffffffffffffffffffffffffffffffffffffff021916908373ffffffffffffffffffffffffffffffffffffffff1602179055505050039050614261338261479e565b828060010193505061407e565b50505050505050565b6000600460008473ffffffffffffffffffffffffffffffffffffffff1673ffffffffffffffffffffffffffffffffffffffff16815260200190815260200160002060008373ffffffffffffffffffffffffffffffffffffffff1673ffffffffffffffffffffffffffffffffffffffff16815260200190815260200160002060009054906101000a900460ff16905092915050565b600c60009054906101000a900473ffffffffffffffffffffffffffffffffffffffff1673ffffffffffffffffffffffffffffffffffffffff163373ffffffffffffffffffffffffffffffffffffffff1614151561436757600080fd5b61437081614b4f565b50565b60008061437f83611c05565b90508073ffffffffffffffffffffffffffffffffffffffff168473ffffffffffffffffffffffffffffffffffffffff1614806143ee57508373ffffffffffffffffffffffffffffffffffffffff166143d684611277565b73ffffffffffffffffffffffffffffffffffffffff16145b806143ff57506143fe8185614277565b5b91505092915050565b8173ffffffffffffffffffffffffffffffffffffffff1661442882611c05565b73ffffffffffffffffffffffffffffffffffffffff1614151561444a57600080fd5b600073ffffffffffffffffffffffffffffffffffffffff166002600083815260200190815260200160002060009054906101000a900473ffffffffffffffffffffffffffffffffffffffff1673ffffffffffffffffffffffffffffffffffffffff161415156145075760006002600083815260200190815260200160002060006101000a81548173ffffffffffffffffffffffffffffffffffffffff021916908373ffffffffffffffffffffffffffffffffffffffff1602179055505b5050565b600080600061451a8585614c4b565b600860008581526020019081526020016000205492506145866001600760008873ffffffffffffffffffffffffffffffffffffffff1673ffffffffffffffffffffffffffffffffffffffff16815260200190815260200160002080549050614d7a90919063ffffffff16565b9150600760008673ffffffffffffffffffffffffffffffffffffffff1673ffffffffffffffffffffffffffffffffffffffff168152602001908152602001600020828154811015156145d457fe5b9060005260206000200154905080600760008773ffffffffffffffffffffffffffffffffffffffff1673ffffffffffffffffffffffffffffffffffffffff1681526020019081526020016000208481548110151561462e57fe5b9060005260206000200181905550600760008673ffffffffffffffffffffffffffffffffffffffff1673ffffffffffffffffffffffffffffffffffffffff16815260200190815260200160002080548091906001900361468e9190615120565b50600060086000868152602001908152602001600020819055508260086000838152602001908152602001600020819055505050505050565b60006146d38383614d93565b600760008473ffffffffffffffffffffffffffffffffffffffff1673ffffffffffffffffffffffffffffffffffffffff168152602001908152602001600020805490509050600760008473ffffffffffffffffffffffffffffffffffffffff1673ffffffffffffffffffffffffffffffffffffffff168152602001908152602001600020829080600181540180825580915050906001820390600052602060002001600090919290919091505550806008600084815260200190815260200160002081905550505050565b6147a88282614eed565b600980549050600a60008381526020019081526020016000208190555060098190806001815401808255809150509060018203906000526020600020016000909192909190915055505050565b60008060006148048585614f93565b6000600b600086815260200190815260200160002080546001816001161561010002031660029004905014151561485557600b60008581526020019081526020016000206000614854919061514c565b5b600a60008581526020019081526020016000205492506148846001600980549050614d7a90919063ffffffff16565b915060098281548110151561489557fe5b90600052602060002001549050806009848154811015156148b257fe5b906000526020600020018190555060006009838154811015156148d157fe5b906000526020600020018190555060098054809190600190036148f49190615120565b506000600a60008681526020019081526020016000208190555082600a6000838152602001908152602001600020819055505050505050565b60008061494f8573ffffffffffffffffffffffffffffffffffffffff16615007565b151561495e5760019150614b46565b8473ffffffffffffffffffffffffffffffffffffffff1663150b7a02338887876040518563ffffffff167c0100000000000000000000000000000000000000000000000000000000028152600401808573ffffffffffffffffffffffffffffffffffffffff1673ffffffffffffffffffffffffffffffffffffffff1681526020018473ffffffffffffffffffffffffffffffffffffffff1673ffffffffffffffffffffffffffffffffffffffff16815260200183815260200180602001828103825283818151815260200191508051906020019080838360005b83811015614a53578082015181840152602081019050614a38565b50505050905090810190601f168015614a805780820380516001836020036101000a031916815260200191505b5095505050505050602060405180830381600087803b158015614aa257600080fd5b505af1158015614ab6573d6000803e3d6000fd5b505050506040513d6020811015614acc57600080fd5b8101908080519060200190929190505050905063150b7a027c0100000000000000000000000000000000000000000000000000000000027bffffffffffffffffffffffffffffffffffffffffffffffffffffffff1916817bffffffffffffffffffffffffffffffffffffffffffffffffffffffff19161491505b50949350505050565b600073ffffffffffffffffffffffffffffffffffffffff168173ffffffffffffffffffffffffffffffffffffffff1614151515614b8b57600080fd5b8073ffffffffffffffffffffffffffffffffffffffff16600c60009054906101000a900473ffffffffffffffffffffffffffffffffffffffff1673ffffffffffffffffffffffffffffffffffffffff167f8be0079c531659141344cd1fd0a4f28419497f9722a3daafe3b4186f6b6457e060405160405180910390a380600c60006101000a81548173ffffffffffffffffffffffffffffffffffffffff021916908373ffffffffffffffffffffffffffffffffffffffff16021790555050565b8173ffffffffffffffffffffffffffffffffffffffff16614c6b82611c05565b73ffffffffffffffffffffffffffffffffffffffff16141515614c8d57600080fd5b614ce06001600360008573ffffffffffffffffffffffffffffffffffffffff1673ffffffffffffffffffffffffffffffffffffffff16815260200190815260200160002054614d7a90919063ffffffff16565b600360008473ffffffffffffffffffffffffffffffffffffffff1673ffffffffffffffffffffffffffffffffffffffff1681526020019081526020016000208190555060006001600083815260200190815260200160002060006101000a81548173ffffffffffffffffffffffffffffffffffffffff021916908373ffffffffffffffffffffffffffffffffffffffff1602179055505050565b6000828211151515614d8857fe5b818303905092915050565b600073ffffffffffffffffffffffffffffffffffffffff166001600083815260200190815260200160002060009054906101000a900473ffffffffffffffffffffffffffffffffffffffff1673ffffffffffffffffffffffffffffffffffffffff16141515614e0157600080fd5b816001600083815260200190815260200160002060006101000a81548173ffffffffffffffffffffffffffffffffffffffff021916908373ffffffffffffffffffffffffffffffffffffffff160217905550614ea66001600360008573ffffffffffffffffffffffffffffffffffffffff1673ffffffffffffffffffffffffffffffffffffffff1681526020019081526020016000205461501a90919063ffffffff16565b600360008473ffffffffffffffffffffffffffffffffffffffff1673ffffffffffffffffffffffffffffffffffffffff168152602001908152602001600020819055505050565b600073ffffffffffffffffffffffffffffffffffffffff168273ffffffffffffffffffffffffffffffffffffffff1614151515614f2957600080fd5b614f3382826146c7565b808273ffffffffffffffffffffffffffffffffffffffff16600073ffffffffffffffffffffffffffffffffffffffff167fddf252ad1be2c89b69c2b068fc378daa952ba7f163c4a11628f55a4df523b3ef60405160405180910390a45050565b614f9d8282614408565b614fa7828261450b565b80600073ffffffffffffffffffffffffffffffffffffffff168373ffffffffffffffffffffffffffffffffffffffff167fddf252ad1be2c89b69c2b068fc378daa952ba7f163c4a11628f55a4df523b3ef60405160405180910390a45050565b600080823b905060008111915050919050565b6000818301905082811015151561502d57fe5b80905092915050565b61014060405190810160405280606081526020016060815260200160008152602001600081526020016000815260200160008152602001606081526020016060815260200160008152602001600073ffffffffffffffffffffffffffffffffffffffff1681525090565b828054600181600116156101000203166002900490600052602060002090601f016020900481019282601f106150e157805160ff191683800117855561510f565b8280016001018555821561510f579182015b8281111561510e5782518255916020019190600101906150f3565b5b50905061511c9190615194565b5090565b815481835581811115615147578183600052602060002091820191016151469190615194565b5b505050565b50805460018160011615610100020316600290046000825580601f106151725750615191565b601f0160209004906000526020600020908101906151909190615194565b5b50565b6151b691905b808211156151b257600081600090555060010161519a565b5090565b905600a165627a7a72305820ae551524959d401ba52f6af73600ea2ad8ed2bfbfc49f700d8e5e4a080447fdc0029",
  "source": "pragma solidity ^0.4.24;\n\nimport 'zeppelin-solidity/contracts/token/ERC721/ERC721Token.sol';\nimport 'zeppelin-solidity/contracts/ownership/Ownable.sol';\n\ncontract Kudos is ERC721Token(\"KudosToken\", \"KDO\"), Ownable { \n    struct Kudo {\n        string name;\n        string description;         // move to metadata in IPFS?\n        uint256 rarity;\n        uint256 priceFinney;              // price in finney\n        uint256 numClonesAllowed;\n        uint256 numClonesInWild;\n        string tags;                // move to metadata in IPFS?\n        string image;               // IPFS Hash\n        uint256 clonedFromId;       // id of gen0 kudos\n        address sentFromAddress;\n    }\n\n    Kudo[] public kudos;\n\n    // constructor (Kudo[] kudos) public {\n    //     // Throw away the first index, and use 0 to check if the data exists\n    //     kudos.push(0);\n    // }\n\n    mapping(string => uint256) internal nameToTokenId;\n\n    function mint(string name, string description, uint256 rarity, uint256 priceFinney, uint256 numClonesAllowed, string tags, string image) public payable onlyOwner returns (uint256 tokenId) {\n        // Ensure that each Gen0 Kudos is unique\n        require(nameToTokenId[name] == 0);\n        uint256 _numClonesInWild = 0;\n        uint256 _clonedFromId = 0;\n\n        Kudo memory _kudo = Kudo({name: name, description: description, rarity: rarity,\n                                  priceFinney: priceFinney, numClonesAllowed: numClonesAllowed,\n                                  numClonesInWild: _numClonesInWild,\n                                  tags: tags, image: image, clonedFromId: _clonedFromId,\n                                  sentFromAddress: msg.sender\n                                  });\n        // The new kudo is pushed onto the array and minted\n        // Note that Solidity uses 0 as a default value when an item is not found in a mapping.\n\n        // If the array is new, skip over the first index.\n        if(kudos.length == 0) {\n            Kudo memory _dummyKudo = Kudo({name: 'dummy', description: 'dummy', rarity: 0, priceFinney: 0,\n                                           numClonesAllowed: 0, numClonesInWild: 0,\n                                           tags: 'dummy', image: 'dummy', clonedFromId: 0,\n                                           sentFromAddress: msg.sender\n                                           });\n            kudos.push(_dummyKudo);\n        }\n        tokenId = kudos.push(_kudo) - 1;\n        kudos[tokenId].clonedFromId = tokenId;\n\n        _mint(msg.sender, tokenId);\n\n        nameToTokenId[name] = tokenId;\n        // return tokenId;\n    }\n\n    function clone(string name, uint256 numClonesRequested) public payable {\n        // Grab existing Kudo blueprint\n        uint256 gen0KudosId = nameToTokenId[name];\n        Kudo memory _kudo = kudos[gen0KudosId];\n        require(_kudo.numClonesInWild + numClonesRequested <= _kudo.numClonesAllowed);\n        require(msg.value == _kudo.priceFinney * 10**15);\n\n        // Update original kudo struct in the array\n        _kudo.numClonesInWild += numClonesRequested;\n        kudos[gen0KudosId] = _kudo;\n\n        // Create new kudo, don't let it be cloned\n        for (uint i = 0; i < numClonesRequested; i++) {\n            Kudo memory _newKudo;\n            _newKudo.name = _kudo.name;\n            _newKudo.description = _kudo.description;\n            _newKudo.rarity = _kudo.rarity;\n            _newKudo.priceFinney = _kudo.priceFinney;\n            _newKudo.numClonesAllowed = 0;\n            _newKudo.numClonesInWild = _kudo.numClonesInWild;\n            _newKudo.tags = _kudo.tags;\n            _newKudo.image = _kudo.image;\n            _newKudo.clonedFromId = gen0KudosId;\n            _newKudo.sentFromAddress = msg.sender;\n\n            // Note that Solidity uses 0 as a default value when an item is not found in a mapping.\n            uint256 tokenId = kudos.push(_newKudo) - 1;\n\n            _mint(msg.sender, tokenId);\n        }\n\n    }\n\n    function cloneAndTransfer(string name, uint256 numClonesRequested, address receiver) public payable {\n        // Grab existing Kudo blueprint\n        uint256 gen0KudosId = nameToTokenId[name];\n        Kudo memory _kudo = kudos[gen0KudosId];\n        require(_kudo.numClonesInWild + numClonesRequested <= _kudo.numClonesAllowed);\n        require(msg.value == _kudo.priceFinney * 10**15);\n\n        // Update original kudo struct in the array\n        _kudo.numClonesInWild += numClonesRequested;\n        kudos[gen0KudosId] = _kudo;\n\n        // Create new kudo, don't let it be cloned\n        for (uint i = 0; i < numClonesRequested; i++) {\n            Kudo memory _newKudo;\n            _newKudo.name = _kudo.name;\n            _newKudo.description = _kudo.description;\n            _newKudo.rarity = _kudo.rarity;\n            _newKudo.priceFinney = _kudo.priceFinney;\n            _newKudo.numClonesAllowed = 0;\n            _newKudo.numClonesInWild = _kudo.numClonesInWild;\n            _newKudo.tags = _kudo.tags;\n            _newKudo.image = _kudo.image;\n            _newKudo.clonedFromId = gen0KudosId;\n            _newKudo.sentFromAddress = msg.sender;\n\n            // Note that Solidity uses 0 as a default value when an item is not found in a mapping.\n            uint256 tokenId = kudos.push(_newKudo) - 1;\n\n            _mint(receiver, tokenId);\n            // transferFrom(msg.sender, receiver, tokenId);\n        }\n\n    }\n\n    function burnGen0(address owner, uint256 tokenId) public payable onlyOwner {\n        Kudo memory _kudo = kudos[tokenId];\n        delete nameToTokenId[_kudo.name];\n        _burn(owner, tokenId);\n    }\n\n    function burn(address owner, uint256 tokenId) public payable {\n        Kudo memory _kudo = kudos[tokenId];\n        uint256 gen0Id = nameToTokenId[_kudo.name];\n        Kudo memory _gen0Kudo = kudos[gen0Id];\n        _gen0Kudo.numClonesInWild -= 1;\n        kudos[gen0Id] = _gen0Kudo;\n        _burn(owner, tokenId);\n    }\n\n\n    function getKudosById(uint256 tokenId) view public returns (string name, string description, uint256 rarity,\n                                                                uint256 priceFinney, uint256 numClonesAllowed, uint256 numClonesInWild,\n                                                                string tags, string image, uint256 clonedFromId, address sentFromAddress)\n    {\n        Kudo memory _kudo = kudos[tokenId];\n\n        name = _kudo.name;\n        description = _kudo.description;\n        rarity = _kudo.rarity;\n        priceFinney = _kudo.priceFinney;\n        numClonesAllowed = _kudo.numClonesAllowed;\n        numClonesInWild = _kudo.numClonesInWild;\n        tags = _kudo.tags;\n        image = _kudo.image;\n        clonedFromId = _kudo.clonedFromId;\n        sentFromAddress = _kudo.sentFromAddress;\n    }\n\n\n    function getGen0TokenId(string name) view public returns (uint256) {\n        // If the result is 0 it means the key was not found in the mapping.\n        // string memory name = nameToTokenId[name];\n        // if(name == 0) throw;\n        return nameToTokenId[name];\n    }\n\n}",
  "sourcePath": "/Users/jhaas/repos/gitcoin-erc721/contracts/Kudos.sol",
  "compiler": {
    "name": "solc",
    "version": "0.4.24+commit.e67f0147.Emscripten.clang"
  },
  "schemaVersion": "2.0.1",
  "updatedAt": "2018-09-12T20:19:38.028Z"
}