{
  "contractName": "Kudos",
  "abi": [
    {
      "constant": true,
      "inputs": [],
      "name": "name",
      "outputs": [
        {
          "name": "",
          "type": "string"
        }
      ],
      "payable": false,
      "stateMutability": "view",
      "type": "function"
    },
    {
      "constant": true,
      "inputs": [
        {
          "name": "_tokenId",
          "type": "uint256"
        }
      ],
      "name": "getApproved",
      "outputs": [
        {
          "name": "",
          "type": "address"
        }
      ],
      "payable": false,
      "stateMutability": "view",
      "type": "function"
    },
    {
      "constant": false,
      "inputs": [
        {
          "name": "_to",
          "type": "address"
        },
        {
          "name": "_tokenId",
          "type": "uint256"
        }
      ],
      "name": "approve",
      "outputs": [],
      "payable": false,
      "stateMutability": "nonpayable",
      "type": "function"
    },
    {
      "constant": true,
      "inputs": [],
      "name": "totalSupply",
      "outputs": [
        {
          "name": "",
          "type": "uint256"
        }
      ],
      "payable": false,
      "stateMutability": "view",
      "type": "function"
    },
    {
      "constant": false,
      "inputs": [
        {
          "name": "_from",
          "type": "address"
        },
        {
          "name": "_to",
          "type": "address"
        },
        {
          "name": "_tokenId",
          "type": "uint256"
        }
      ],
      "name": "transferFrom",
      "outputs": [],
      "payable": false,
      "stateMutability": "nonpayable",
      "type": "function"
    },
    {
      "constant": true,
      "inputs": [
        {
          "name": "_owner",
          "type": "address"
        },
        {
          "name": "_index",
          "type": "uint256"
        }
      ],
      "name": "tokenOfOwnerByIndex",
      "outputs": [
        {
          "name": "",
          "type": "uint256"
        }
      ],
      "payable": false,
      "stateMutability": "view",
      "type": "function"
    },
    {
      "constant": false,
      "inputs": [
        {
          "name": "_from",
          "type": "address"
        },
        {
          "name": "_to",
          "type": "address"
        },
        {
          "name": "_tokenId",
          "type": "uint256"
        }
      ],
      "name": "safeTransferFrom",
      "outputs": [],
      "payable": false,
      "stateMutability": "nonpayable",
      "type": "function"
    },
    {
      "constant": true,
      "inputs": [
        {
          "name": "_tokenId",
          "type": "uint256"
        }
      ],
      "name": "exists",
      "outputs": [
        {
          "name": "",
          "type": "bool"
        }
      ],
      "payable": false,
      "stateMutability": "view",
      "type": "function"
    },
    {
      "constant": true,
      "inputs": [
        {
          "name": "_index",
          "type": "uint256"
        }
      ],
      "name": "tokenByIndex",
      "outputs": [
        {
          "name": "",
          "type": "uint256"
        }
      ],
      "payable": false,
      "stateMutability": "view",
      "type": "function"
    },
    {
      "constant": true,
      "inputs": [
        {
          "name": "_tokenId",
          "type": "uint256"
        }
      ],
      "name": "ownerOf",
      "outputs": [
        {
          "name": "",
          "type": "address"
        }
      ],
      "payable": false,
      "stateMutability": "view",
      "type": "function"
    },
    {
      "constant": true,
      "inputs": [
        {
          "name": "_owner",
          "type": "address"
        }
      ],
      "name": "balanceOf",
      "outputs": [
        {
          "name": "",
          "type": "uint256"
        }
      ],
      "payable": false,
      "stateMutability": "view",
      "type": "function"
    },
    {
      "constant": false,
      "inputs": [],
      "name": "renounceOwnership",
      "outputs": [],
      "payable": false,
      "stateMutability": "nonpayable",
      "type": "function"
    },
    {
      "constant": true,
      "inputs": [
        {
          "name": "",
          "type": "uint256"
        }
      ],
      "name": "kudos",
      "outputs": [
        {
          "name": "name",
          "type": "string"
        },
        {
          "name": "description",
          "type": "string"
        },
        {
          "name": "rareness",
          "type": "uint256"
        },
        {
          "name": "price",
          "type": "uint256"
        },
        {
          "name": "numClonesAllowed",
          "type": "uint256"
        },
        {
          "name": "numClonesInWild",
          "type": "uint256"
        }
      ],
      "payable": false,
      "stateMutability": "view",
      "type": "function"
    },
    {
      "constant": true,
      "inputs": [],
      "name": "owner",
      "outputs": [
        {
          "name": "",
          "type": "address"
        }
      ],
      "payable": false,
      "stateMutability": "view",
      "type": "function"
    },
    {
      "constant": true,
      "inputs": [],
      "name": "symbol",
      "outputs": [
        {
          "name": "",
          "type": "string"
        }
      ],
      "payable": false,
      "stateMutability": "view",
      "type": "function"
    },
    {
      "constant": false,
      "inputs": [
        {
          "name": "_to",
          "type": "address"
        },
        {
          "name": "_approved",
          "type": "bool"
        }
      ],
      "name": "setApprovalForAll",
      "outputs": [],
      "payable": false,
      "stateMutability": "nonpayable",
      "type": "function"
    },
    {
      "constant": false,
      "inputs": [
        {
          "name": "_from",
          "type": "address"
        },
        {
          "name": "_to",
          "type": "address"
        },
        {
          "name": "_tokenId",
          "type": "uint256"
        },
        {
          "name": "_data",
          "type": "bytes"
        }
      ],
      "name": "safeTransferFrom",
      "outputs": [],
      "payable": false,
      "stateMutability": "nonpayable",
      "type": "function"
    },
    {
      "constant": true,
      "inputs": [
        {
          "name": "_tokenId",
          "type": "uint256"
        }
      ],
      "name": "tokenURI",
      "outputs": [
        {
          "name": "",
          "type": "string"
        }
      ],
      "payable": false,
      "stateMutability": "view",
      "type": "function"
    },
    {
      "constant": true,
      "inputs": [
        {
          "name": "_owner",
          "type": "address"
        },
        {
          "name": "_operator",
          "type": "address"
        }
      ],
      "name": "isApprovedForAll",
      "outputs": [
        {
          "name": "",
          "type": "bool"
        }
      ],
      "payable": false,
      "stateMutability": "view",
      "type": "function"
    },
    {
      "constant": false,
      "inputs": [
        {
          "name": "_newOwner",
          "type": "address"
        }
      ],
      "name": "transferOwnership",
      "outputs": [],
      "payable": false,
      "stateMutability": "nonpayable",
      "type": "function"
    },
    {
      "anonymous": false,
      "inputs": [
        {
          "indexed": true,
          "name": "previousOwner",
          "type": "address"
        }
      ],
      "name": "OwnershipRenounced",
      "type": "event"
    },
    {
      "anonymous": false,
      "inputs": [
        {
          "indexed": true,
          "name": "previousOwner",
          "type": "address"
        },
        {
          "indexed": true,
          "name": "newOwner",
          "type": "address"
        }
      ],
      "name": "OwnershipTransferred",
      "type": "event"
    },
    {
      "anonymous": false,
      "inputs": [
        {
          "indexed": true,
          "name": "_from",
          "type": "address"
        },
        {
          "indexed": true,
          "name": "_to",
          "type": "address"
        },
        {
          "indexed": false,
          "name": "_tokenId",
          "type": "uint256"
        }
      ],
      "name": "Transfer",
      "type": "event"
    },
    {
      "anonymous": false,
      "inputs": [
        {
          "indexed": true,
          "name": "_owner",
          "type": "address"
        },
        {
          "indexed": true,
          "name": "_approved",
          "type": "address"
        },
        {
          "indexed": false,
          "name": "_tokenId",
          "type": "uint256"
        }
      ],
      "name": "Approval",
      "type": "event"
    },
    {
      "anonymous": false,
      "inputs": [
        {
          "indexed": true,
          "name": "_owner",
          "type": "address"
        },
        {
          "indexed": true,
          "name": "_operator",
          "type": "address"
        },
        {
          "indexed": false,
          "name": "_approved",
          "type": "bool"
        }
      ],
      "name": "ApprovalForAll",
      "type": "event"
    },
    {
      "constant": false,
      "inputs": [
        {
          "name": "name",
          "type": "string"
        },
        {
          "name": "description",
          "type": "string"
        },
        {
          "name": "rareness",
          "type": "uint256"
        },
        {
          "name": "price",
          "type": "uint256"
        },
        {
          "name": "numClonesAllowed",
          "type": "uint256"
        }
      ],
      "name": "create",
      "outputs": [],
      "payable": true,
      "stateMutability": "payable",
      "type": "function"
    },
    {
      "constant": false,
      "inputs": [
        {
          "name": "name",
          "type": "string"
        },
        {
          "name": "numClonesRequested",
          "type": "uint256"
        }
      ],
      "name": "clone",
      "outputs": [],
      "payable": true,
      "stateMutability": "payable",
      "type": "function"
    },
    {
      "constant": false,
      "inputs": [
        {
          "name": "owner",
          "type": "address"
        },
        {
          "name": "tokenId",
          "type": "uint256"
        }
      ],
      "name": "burn",
      "outputs": [],
      "payable": true,
      "stateMutability": "payable",
      "type": "function"
    },
    {
      "constant": true,
      "inputs": [
        {
          "name": "tokenId",
          "type": "uint256"
        }
      ],
      "name": "getKudoById",
      "outputs": [
        {
          "name": "name",
          "type": "string"
        },
        {
          "name": "description",
          "type": "string"
        },
        {
          "name": "rareness",
          "type": "uint256"
        },
        {
          "name": "price",
          "type": "uint256"
        },
        {
          "name": "numClonesAllowed",
          "type": "uint256"
        },
        {
          "name": "numClonesInWild",
          "type": "uint256"
        }
      ],
      "payable": false,
      "stateMutability": "view",
      "type": "function"
    },
    {
      "constant": true,
      "inputs": [
        {
          "name": "name",
          "type": "string"
        }
      ],
      "name": "getGen0TokenId",
      "outputs": [
        {
          "name": "",
          "type": "uint256"
        }
      ],
      "payable": false,
      "stateMutability": "view",
      "type": "function"
    }
  ],
  "bytecode": "0x60806040526040805190810160405280600a81526020017f4b75646f73546f6b656e000000000000000000000000000000000000000000008152506040805190810160405280600381526020017f4b444f0000000000000000000000000000000000000000000000000000000000815250816004908051906020019062000088929190620000eb565b508060059080519060200190620000a1929190620000eb565b50505033600b60006101000a81548173ffffffffffffffffffffffffffffffffffffffff021916908373ffffffffffffffffffffffffffffffffffffffff1602179055506200019a565b828054600181600116156101000203166002900490600052602060002090601f016020900481019282601f106200012e57805160ff19168380011785556200015f565b828001600101855582156200015f579182015b828111156200015e57825182559160200191906001019062000141565b5b5090506200016e919062000172565b5090565b6200019791905b808211156200019357600081600090555060010162000179565b5090565b90565b61332280620001aa6000396000f300608060405260043610610149576000357c0100000000000000000000000000000000000000000000000000000000900463ffffffff16806306fdde031461014e578063081812fc146101de578063095ea7b31461024b57806318160ddd1461029857806323b872dd146102c35780632f745c591461033057806342842e0e146103915780634f558e79146103fe5780634f6ccce7146104435780636352211e1461048457806370a08231146104f1578063715018a6146105485780637f180db71461055f5780638c1bc7ce1461068d5780638da5cb5b146107bb57806395d89b41146108125780639a17daf1146108a25780639dc29fac1461091f578063a22cb4651461095f578063b88d4fde146109ae578063c87b56dd14610a61578063daa6eb1d14610b07578063e985e9c514610b6d578063f2fde38b14610be8578063fb24f69714610c2b575b600080fd5b34801561015a57600080fd5b50610163610ceb565b6040518080602001828103825283818151815260200191508051906020019080838360005b838110156101a3578082015181840152602081019050610188565b50505050905090810190601f1680156101d05780820380516001836020036101000a031916815260200191505b509250505060405180910390f35b3480156101ea57600080fd5b5061020960048036038101908080359060200190929190505050610d8d565b604051808273ffffffffffffffffffffffffffffffffffffffff1673ffffffffffffffffffffffffffffffffffffffff16815260200191505060405180910390f35b34801561025757600080fd5b50610296600480360381019080803573ffffffffffffffffffffffffffffffffffffffff16906020019092919080359060200190929190505050610dca565b005b3480156102a457600080fd5b506102ad610f90565b6040518082815260200191505060405180910390f35b3480156102cf57600080fd5b5061032e600480360381019080803573ffffffffffffffffffffffffffffffffffffffff169060200190929190803573ffffffffffffffffffffffffffffffffffffffff16906020019092919080359060200190929190505050610f9d565b005b34801561033c57600080fd5b5061037b600480360381019080803573ffffffffffffffffffffffffffffffffffffffff169060200190929190803590602001909291905050506110b4565b6040518082815260200191505060405180910390f35b34801561039d57600080fd5b506103fc600480360381019080803573ffffffffffffffffffffffffffffffffffffffff169060200190929190803573ffffffffffffffffffffffffffffffffffffffff1690602001909291908035906020019092919050505061112b565b005b34801561040a57600080fd5b5061042960048036038101908080359060200190929190505050611163565b604051808215151515815260200191505060405180910390f35b34801561044f57600080fd5b5061046e600480360381019080803590602001909291905050506111d4565b6040518082815260200191505060405180910390f35b34801561049057600080fd5b506104af6004803603810190808035906020019092919050505061120c565b604051808273ffffffffffffffffffffffffffffffffffffffff1673ffffffffffffffffffffffffffffffffffffffff16815260200191505060405180910390f35b3480156104fd57600080fd5b50610532600480360381019080803573ffffffffffffffffffffffffffffffffffffffff169060200190929190505050611289565b6040518082815260200191505060405180910390f35b34801561055457600080fd5b5061055d61130d565b005b34801561056b57600080fd5b5061058a60048036038101908080359060200190929190505050611412565b604051808060200180602001878152602001868152602001858152602001848152602001838103835289818151815260200191508051906020019080838360005b838110156105e65780820151818401526020810190506105cb565b50505050905090810190601f1680156106135780820380516001836020036101000a031916815260200191505b50838103825288818151815260200191508051906020019080838360005b8381101561064c578082015181840152602081019050610631565b50505050905090810190601f1680156106795780820380516001836020036101000a031916815260200191505b509850505050505050505060405180910390f35b34801561069957600080fd5b506106b86004803603810190808035906020019092919050505061158d565b604051808060200180602001878152602001868152602001858152602001848152602001838103835289818151815260200191508051906020019080838360005b838110156107145780820151818401526020810190506106f9565b50505050905090810190601f1680156107415780820380516001836020036101000a031916815260200191505b50838103825288818151815260200191508051906020019080838360005b8381101561077a57808201518184015260208101905061075f565b50505050905090810190601f1680156107a75780820380516001836020036101000a031916815260200191505b509850505050505050505060405180910390f35b3480156107c757600080fd5b506107d0611769565b604051808273ffffffffffffffffffffffffffffffffffffffff1673ffffffffffffffffffffffffffffffffffffffff16815260200191505060405180910390f35b34801561081e57600080fd5b5061082761178f565b6040518080602001828103825283818151815260200191508051906020019080838360005b8381101561086757808201518184015260208101905061084c565b50505050905090810190601f1680156108945780820380516001836020036101000a031916815260200191505b509250505060405180910390f35b3480156108ae57600080fd5b50610909600480360381019080803590602001908201803590602001908080601f0160208091040260200160405190810160405280939291908181526020018383808284378201915050505050509192919290505050611831565b6040518082815260200191505060405180910390f35b61095d600480360381019080803573ffffffffffffffffffffffffffffffffffffffff169060200190929190803590602001909291905050506118a6565b005b34801561096b57600080fd5b506109ac600480360381019080803573ffffffffffffffffffffffffffffffffffffffff169060200190929190803515159060200190929190505050611ac7565b005b3480156109ba57600080fd5b50610a5f600480360381019080803573ffffffffffffffffffffffffffffffffffffffff169060200190929190803573ffffffffffffffffffffffffffffffffffffffff16906020019092919080359060200190929190803590602001908201803590602001908080601f0160208091040260200160405190810160405280939291908181526020018383808284378201915050505050509192919290505050611c03565b005b348015610a6d57600080fd5b50610a8c60048036038101908080359060200190929190505050611c42565b6040518080602001828103825283818151815260200191508051906020019080838360005b83811015610acc578082015181840152602081019050610ab1565b50505050905090810190601f168015610af95780820380516001836020036101000a031916815260200191505b509250505060405180910390f35b610b6b600480360381019080803590602001908201803590602001908080601f016020809104026020016040519081016040528093929190818152602001838380828437820191505050505050919291929080359060200190929190505050611d0b565b005b348015610b7957600080fd5b50610bce600480360381019080803573ffffffffffffffffffffffffffffffffffffffff169060200190929190803573ffffffffffffffffffffffffffffffffffffffff169060200190929190505050612117565b604051808215151515815260200191505060405180910390f35b348015610bf457600080fd5b50610c29600480360381019080803573ffffffffffffffffffffffffffffffffffffffff1690602001909291905050506121ab565b005b610ce9600480360381019080803590602001908201803590602001908080601f0160208091040260200160405190810160405280939291908181526020018383808284378201915050505050509192919290803590602001908201803590602001908080601f0160208091040260200160405190810160405280939291908181526020018383808284378201915050505050509192919290803590602001909291908035906020019092919080359060200190929190505050612213565b005b606060048054600181600116156101000203166002900480601f016020809104026020016040519081016040528092919081815260200182805460018160011615610100020316600290048015610d835780601f10610d5857610100808354040283529160200191610d83565b820191906000526020600020905b815481529060010190602001808311610d6657829003601f168201915b5050505050905090565b60006001600083815260200190815260200160002060009054906101000a900473ffffffffffffffffffffffffffffffffffffffff169050919050565b6000610dd58261120c565b90508073ffffffffffffffffffffffffffffffffffffffff168373ffffffffffffffffffffffffffffffffffffffff1614151515610e1257600080fd5b8073ffffffffffffffffffffffffffffffffffffffff163373ffffffffffffffffffffffffffffffffffffffff161480610e525750610e518133612117565b5b1515610e5d57600080fd5b600073ffffffffffffffffffffffffffffffffffffffff16610e7e83610d8d565b73ffffffffffffffffffffffffffffffffffffffff16141580610ece5750600073ffffffffffffffffffffffffffffffffffffffff168373ffffffffffffffffffffffffffffffffffffffff1614155b15610f8b57826001600084815260200190815260200160002060006101000a81548173ffffffffffffffffffffffffffffffffffffffff021916908373ffffffffffffffffffffffffffffffffffffffff1602179055508273ffffffffffffffffffffffffffffffffffffffff168173ffffffffffffffffffffffffffffffffffffffff167f8c5be1e5ebec7d5bd14f71427d1e84f3dd0314c0f7b2291e5b200ac8c7c3b925846040518082815260200191505060405180910390a35b505050565b6000600880549050905090565b80610fa83382612444565b1515610fb357600080fd5b600073ffffffffffffffffffffffffffffffffffffffff168473ffffffffffffffffffffffffffffffffffffffff1614151515610fef57600080fd5b600073ffffffffffffffffffffffffffffffffffffffff168373ffffffffffffffffffffffffffffffffffffffff161415151561102b57600080fd5b61103584836124d9565b61103f8483612642565b611049838361285a565b8273ffffffffffffffffffffffffffffffffffffffff168473ffffffffffffffffffffffffffffffffffffffff167fddf252ad1be2c89b69c2b068fc378daa952ba7f163c4a11628f55a4df523b3ef846040518082815260200191505060405180910390a350505050565b60006110bf83611289565b821015156110cc57600080fd5b600660008473ffffffffffffffffffffffffffffffffffffffff1673ffffffffffffffffffffffffffffffffffffffff1681526020019081526020016000208281548110151561111857fe5b9060005260206000200154905092915050565b806111363382612444565b151561114157600080fd5b61115d8484846020604051908101604052806000815250611c03565b50505050565b60008060008084815260200190815260200160002060009054906101000a900473ffffffffffffffffffffffffffffffffffffffff169050600073ffffffffffffffffffffffffffffffffffffffff168173ffffffffffffffffffffffffffffffffffffffff161415915050919050565b60006111de610f90565b821015156111eb57600080fd5b6008828154811015156111fa57fe5b90600052602060002001549050919050565b60008060008084815260200190815260200160002060009054906101000a900473ffffffffffffffffffffffffffffffffffffffff169050600073ffffffffffffffffffffffffffffffffffffffff168173ffffffffffffffffffffffffffffffffffffffff161415151561128057600080fd5b80915050919050565b60008073ffffffffffffffffffffffffffffffffffffffff168273ffffffffffffffffffffffffffffffffffffffff16141515156112c657600080fd5b600260008373ffffffffffffffffffffffffffffffffffffffff1673ffffffffffffffffffffffffffffffffffffffff168152602001908152602001600020549050919050565b600b60009054906101000a900473ffffffffffffffffffffffffffffffffffffffff1673ffffffffffffffffffffffffffffffffffffffff163373ffffffffffffffffffffffffffffffffffffffff1614151561136957600080fd5b600b60009054906101000a900473ffffffffffffffffffffffffffffffffffffffff1673ffffffffffffffffffffffffffffffffffffffff167ff8df31144d9c2f0f6b59d69b8b98abd5459d07f2742c4df920b25aae33c6482060405160405180910390a26000600b60006101000a81548173ffffffffffffffffffffffffffffffffffffffff021916908373ffffffffffffffffffffffffffffffffffffffff160217905550565b600c8181548110151561142157fe5b9060005260206000209060060201600091509050806000018054600181600116156101000203166002900480601f0160208091040260200160405190810160405280929190818152602001828054600181600116156101000203166002900480156114cd5780601f106114a2576101008083540402835291602001916114cd565b820191906000526020600020905b8154815290600101906020018083116114b057829003601f168201915b505050505090806001018054600181600116156101000203166002900480601f01602080910402602001604051908101604052809291908181526020018280546001816001161561010002031660029004801561156b5780601f106115405761010080835404028352916020019161156b565b820191906000526020600020905b81548152906001019060200180831161154e57829003601f168201915b5050505050908060020154908060030154908060040154908060050154905086565b60608060008060008061159e6131a6565b600c888154811015156115ad57fe5b906000526020600020906006020160c06040519081016040529081600082018054600181600116156101000203166002900480601f0160208091040260200160405190810160405280929190818152602001828054600181600116156101000203166002900480156116605780601f1061163557610100808354040283529160200191611660565b820191906000526020600020905b81548152906001019060200180831161164357829003601f168201915b50505050508152602001600182018054600181600116156101000203166002900480601f0160208091040260200160405190810160405280929190818152602001828054600181600116156101000203166002900480156117025780601f106116d757610100808354040283529160200191611702565b820191906000526020600020905b8154815290600101906020018083116116e557829003601f168201915b50505050508152602001600282015481526020016003820154815260200160048201548152602001600582015481525050905080600001519650806020015195508060400151945080606001519350806080015192508060a0015191505091939550919395565b600b60009054906101000a900473ffffffffffffffffffffffffffffffffffffffff1681565b606060058054600181600116156101000203166002900480601f0160208091040260200160405190810160405280929190818152602001828054600181600116156101000203166002900480156118275780601f106117fc57610100808354040283529160200191611827565b820191906000526020600020905b81548152906001019060200180831161180a57829003601f168201915b5050505050905090565b6000600d826040518082805190602001908083835b60208310151561186b5780518252602082019150602081019050602083039250611846565b6001836020036101000a0380198251168184511680821785525050505050509050019150509081526020016040518091039020549050919050565b6118ae6131a6565b600c828154811015156118bd57fe5b906000526020600020906006020160c06040519081016040529081600082018054600181600116156101000203166002900480601f0160208091040260200160405190810160405280929190818152602001828054600181600116156101000203166002900480156119705780601f1061194557610100808354040283529160200191611970565b820191906000526020600020905b81548152906001019060200180831161195357829003601f168201915b50505050508152602001600182018054600181600116156101000203166002900480601f016020809104026020016040519081016040528092919081815260200182805460018160011615610100020316600290048015611a125780601f106119e757610100808354040283529160200191611a12565b820191906000526020600020905b8154815290600101906020018083116119f557829003601f168201915b505050505081526020016002820154815260200160038201548152602001600482015481526020016005820154815250509050600d81600001516040518082805190602001908083835b602083101515611a815780518252602082019150602081019050602083039250611a5c565b6001836020036101000a038019825116818451168082178552505050505050905001915050908152602001604051809103902060009055611ac28383612931565b505050565b3373ffffffffffffffffffffffffffffffffffffffff168273ffffffffffffffffffffffffffffffffffffffff1614151515611b0257600080fd5b80600360003373ffffffffffffffffffffffffffffffffffffffff1673ffffffffffffffffffffffffffffffffffffffff16815260200190815260200160002060008473ffffffffffffffffffffffffffffffffffffffff1673ffffffffffffffffffffffffffffffffffffffff16815260200190815260200160002060006101000a81548160ff0219169083151502179055508173ffffffffffffffffffffffffffffffffffffffff163373ffffffffffffffffffffffffffffffffffffffff167f17307eab39ab6107e8899845ad3d59bd9653f200f220920489ca2b5937696c3183604051808215151515815260200191505060405180910390a35050565b81611c0e3382612444565b1515611c1957600080fd5b611c24858585610f9d565b611c3085858585612a69565b1515611c3b57600080fd5b5050505050565b6060611c4d82611163565b1515611c5857600080fd5b600a60008381526020019081526020016000208054600181600116156101000203166002900480601f016020809104026020016040519081016040528092919081815260200182805460018160011615610100020316600290048015611cff5780601f10611cd457610100808354040283529160200191611cff565b820191906000526020600020905b815481529060010190602001808311611ce257829003601f168201915b50505050509050919050565b611d136131a6565b6000611d1d6131a6565b6000600c600d876040518082805190602001908083835b602083101515611d595780518252602082019150602081019050602083039250611d34565b6001836020036101000a038019825116818451168082178552505050505050905001915050908152602001604051809103902054815481101515611d9957fe5b906000526020600020906006020160c06040519081016040529081600082018054600181600116156101000203166002900480601f016020809104026020016040519081016040528092919081815260200182805460018160011615610100020316600290048015611e4c5780601f10611e2157610100808354040283529160200191611e4c565b820191906000526020600020905b815481529060010190602001808311611e2f57829003601f168201915b50505050508152602001600182018054600181600116156101000203166002900480601f016020809104026020016040519081016040528092919081815260200182805460018160011615610100020316600290048015611eee5780601f10611ec357610100808354040283529160200191611eee565b820191906000526020600020905b815481529060010190602001808311611ed157829003601f168201915b5050505050815260200160028201548152602001600382015481526020016004820154815260200160058201548152505093508360800151858560a001510111151515611f3a57600080fd5b848460a001818151019150818152505083600c600d886040518082805190602001908083835b602083101515611f855780518252602082019150602081019050602083039250611f60565b6001836020036101000a038019825116818451168082178552505050505050905001915050908152602001604051809103902054815481101515611fc557fe5b90600052602060002090600602016000820151816000019080519060200190611fef9291906131dd565b50602082015181600101908051906020019061200c9291906131dd565b5060408201518160020155606082015181600301556080820151816004015560a08201518160050155905050600092505b8483101561210f5783915060008260800181815250508360a001518260a00181815250506001600c839080600181540180825580915050906001820390600052602060002090600602016000909192909190915060008201518160000190805190602001906120ad9291906131dd565b5060208201518160010190805190602001906120ca9291906131dd565b5060408201518160020155606082015181600301556080820151816004015560a0820151816005015550500390506121023382612c57565b828060010193505061203d565b505050505050565b6000600360008473ffffffffffffffffffffffffffffffffffffffff1673ffffffffffffffffffffffffffffffffffffffff16815260200190815260200160002060008373ffffffffffffffffffffffffffffffffffffffff1673ffffffffffffffffffffffffffffffffffffffff16815260200190815260200160002060009054906101000a900460ff16905092915050565b600b60009054906101000a900473ffffffffffffffffffffffffffffffffffffffff1673ffffffffffffffffffffffffffffffffffffffff163373ffffffffffffffffffffffffffffffffffffffff1614151561220757600080fd5b61221081612cae565b50565b600061221d6131a6565b6000600b60009054906101000a900473ffffffffffffffffffffffffffffffffffffffff1673ffffffffffffffffffffffffffffffffffffffff163373ffffffffffffffffffffffffffffffffffffffff1614151561227b57600080fd5b6000600d896040518082805190602001908083835b6020831015156122b55780518252602082019150602081019050602083039250612290565b6001836020036101000a0380198251168184511680821785525050505050509050019150509081526020016040518091039020541415156122f557600080fd5b6000925060c0604051908101604052808981526020018881526020018781526020018681526020018581526020018481525091506001600c839080600181540180825580915050906001820390600052602060002090600602016000909192909190915060008201518160000190805190602001906123759291906131dd565b5060208201518160010190805190602001906123929291906131dd565b5060408201518160020155606082015181600301556080820151816004015560a0820151816005015550500390506123ca3382612c57565b80600d896040518082805190602001908083835b60208310151561240357805182526020820191506020810190506020830392506123de565b6001836020036101000a0380198251168184511680821785525050505050509050019150509081526020016040518091039020819055505050505050505050565b6000806124508361120c565b90508073ffffffffffffffffffffffffffffffffffffffff168473ffffffffffffffffffffffffffffffffffffffff1614806124bf57508373ffffffffffffffffffffffffffffffffffffffff166124a784610d8d565b73ffffffffffffffffffffffffffffffffffffffff16145b806124d057506124cf8185612117565b5b91505092915050565b8173ffffffffffffffffffffffffffffffffffffffff166124f98261120c565b73ffffffffffffffffffffffffffffffffffffffff1614151561251b57600080fd5b600073ffffffffffffffffffffffffffffffffffffffff166001600083815260200190815260200160002060009054906101000a900473ffffffffffffffffffffffffffffffffffffffff1673ffffffffffffffffffffffffffffffffffffffff1614151561263e5760006001600083815260200190815260200160002060006101000a81548173ffffffffffffffffffffffffffffffffffffffff021916908373ffffffffffffffffffffffffffffffffffffffff160217905550600073ffffffffffffffffffffffffffffffffffffffff168273ffffffffffffffffffffffffffffffffffffffff167f8c5be1e5ebec7d5bd14f71427d1e84f3dd0314c0f7b2291e5b200ac8c7c3b925836040518082815260200191505060405180910390a35b5050565b60008060006126518585612daa565b600760008581526020019081526020016000205492506126bd6001600660008873ffffffffffffffffffffffffffffffffffffffff1673ffffffffffffffffffffffffffffffffffffffff16815260200190815260200160002080549050612ed890919063ffffffff16565b9150600660008673ffffffffffffffffffffffffffffffffffffffff1673ffffffffffffffffffffffffffffffffffffffff1681526020019081526020016000208281548110151561270b57fe5b9060005260206000200154905080600660008773ffffffffffffffffffffffffffffffffffffffff1673ffffffffffffffffffffffffffffffffffffffff1681526020019081526020016000208481548110151561276557fe5b90600052602060002001819055506000600660008773ffffffffffffffffffffffffffffffffffffffff1673ffffffffffffffffffffffffffffffffffffffff168152602001908152602001600020838154811015156127c157fe5b9060005260206000200181905550600660008673ffffffffffffffffffffffffffffffffffffffff1673ffffffffffffffffffffffffffffffffffffffff168152602001908152602001600020805480919060019003612821919061325d565b50600060076000868152602001908152602001600020819055508260076000838152602001908152602001600020819055505050505050565b60006128668383612ef1565b600660008473ffffffffffffffffffffffffffffffffffffffff1673ffffffffffffffffffffffffffffffffffffffff168152602001908152602001600020805490509050600660008473ffffffffffffffffffffffffffffffffffffffff1673ffffffffffffffffffffffffffffffffffffffff168152602001908152602001600020829080600181540180825580915050906001820390600052602060002001600090919290919091505550806007600084815260200190815260200160002081905550505050565b60008060006129408585613049565b6000600a600086815260200190815260200160002080546001816001161561010002031660029004905014151561299157600a600085815260200190815260200160002060006129909190613289565b5b600960008581526020019081526020016000205492506129c06001600880549050612ed890919063ffffffff16565b91506008828154811015156129d157fe5b90600052602060002001549050806008848154811015156129ee57fe5b90600052602060002001819055506000600883815481101515612a0d57fe5b90600052602060002001819055506008805480919060019003612a30919061325d565b50600060096000868152602001908152602001600020819055508260096000838152602001908152602001600020819055505050505050565b600080612a8b8573ffffffffffffffffffffffffffffffffffffffff166130c7565b1515612a9a5760019150612c4e565b8473ffffffffffffffffffffffffffffffffffffffff1663f0b9e5ba8786866040518463ffffffff167c0100000000000000000000000000000000000000000000000000000000028152600401808473ffffffffffffffffffffffffffffffffffffffff1673ffffffffffffffffffffffffffffffffffffffff16815260200183815260200180602001828103825283818151815260200191508051906020019080838360005b83811015612b5c578082015181840152602081019050612b41565b50505050905090810190601f168015612b895780820380516001836020036101000a031916815260200191505b50945050505050602060405180830381600087803b158015612baa57600080fd5b505af1158015612bbe573d6000803e3d6000fd5b505050506040513d6020811015612bd457600080fd5b8101908080519060200190929190505050905063f0b9e5ba7c0100000000000000000000000000000000000000000000000000000000027bffffffffffffffffffffffffffffffffffffffffffffffffffffffff1916817bffffffffffffffffffffffffffffffffffffffffffffffffffffffff19161491505b50949350505050565b612c6182826130da565b600880549050600960008381526020019081526020016000208190555060088190806001815401808255809150509060018203906000526020600020016000909192909190915055505050565b600073ffffffffffffffffffffffffffffffffffffffff168173ffffffffffffffffffffffffffffffffffffffff1614151515612cea57600080fd5b8073ffffffffffffffffffffffffffffffffffffffff16600b60009054906101000a900473ffffffffffffffffffffffffffffffffffffffff1673ffffffffffffffffffffffffffffffffffffffff167f8be0079c531659141344cd1fd0a4f28419497f9722a3daafe3b4186f6b6457e060405160405180910390a380600b60006101000a81548173ffffffffffffffffffffffffffffffffffffffff021916908373ffffffffffffffffffffffffffffffffffffffff16021790555050565b8173ffffffffffffffffffffffffffffffffffffffff16612dca8261120c565b73ffffffffffffffffffffffffffffffffffffffff16141515612dec57600080fd5b612e3f6001600260008573ffffffffffffffffffffffffffffffffffffffff1673ffffffffffffffffffffffffffffffffffffffff16815260200190815260200160002054612ed890919063ffffffff16565b600260008473ffffffffffffffffffffffffffffffffffffffff1673ffffffffffffffffffffffffffffffffffffffff16815260200190815260200160002081905550600080600083815260200190815260200160002060006101000a81548173ffffffffffffffffffffffffffffffffffffffff021916908373ffffffffffffffffffffffffffffffffffffffff1602179055505050565b6000828211151515612ee657fe5b818303905092915050565b600073ffffffffffffffffffffffffffffffffffffffff1660008083815260200190815260200160002060009054906101000a900473ffffffffffffffffffffffffffffffffffffffff1673ffffffffffffffffffffffffffffffffffffffff16141515612f5e57600080fd5b8160008083815260200190815260200160002060006101000a81548173ffffffffffffffffffffffffffffffffffffffff021916908373ffffffffffffffffffffffffffffffffffffffff1602179055506130026001600260008573ffffffffffffffffffffffffffffffffffffffff1673ffffffffffffffffffffffffffffffffffffffff1681526020019081526020016000205461318a90919063ffffffff16565b600260008473ffffffffffffffffffffffffffffffffffffffff1673ffffffffffffffffffffffffffffffffffffffff168152602001908152602001600020819055505050565b61305382826124d9565b61305d8282612642565b600073ffffffffffffffffffffffffffffffffffffffff168273ffffffffffffffffffffffffffffffffffffffff167fddf252ad1be2c89b69c2b068fc378daa952ba7f163c4a11628f55a4df523b3ef836040518082815260200191505060405180910390a35050565b600080823b905060008111915050919050565b600073ffffffffffffffffffffffffffffffffffffffff168273ffffffffffffffffffffffffffffffffffffffff161415151561311657600080fd5b613120828261285a565b8173ffffffffffffffffffffffffffffffffffffffff16600073ffffffffffffffffffffffffffffffffffffffff167fddf252ad1be2c89b69c2b068fc378daa952ba7f163c4a11628f55a4df523b3ef836040518082815260200191505060405180910390a35050565b6000818301905082811015151561319d57fe5b80905092915050565b60c0604051908101604052806060815260200160608152602001600081526020016000815260200160008152602001600081525090565b828054600181600116156101000203166002900490600052602060002090601f016020900481019282601f1061321e57805160ff191683800117855561324c565b8280016001018555821561324c579182015b8281111561324b578251825591602001919060010190613230565b5b50905061325991906132d1565b5090565b8154818355818111156132845781836000526020600020918201910161328391906132d1565b5b505050565b50805460018160011615610100020316600290046000825580601f106132af57506132ce565b601f0160209004906000526020600020908101906132cd91906132d1565b5b50565b6132f391905b808211156132ef5760008160009055506001016132d7565b5090565b905600a165627a7a72305820fe12df6398ffb27bf3862d863ba130372d7db790441048ce69eb564101ee720a0029",
  "source": "pragma solidity ^0.4.24;\n\nimport 'zeppelin-solidity/contracts/token/ERC721/ERC721Token.sol';\nimport 'zeppelin-solidity/contracts/ownership/Ownable.sol';\n\ncontract Kudos is ERC721Token(\"KudosToken\", \"KDO\"), Ownable { \n    struct Kudo {\n        string name;\n        string description;\n        uint256 rareness;\n        uint256 price;\n        uint256 numClonesAllowed;\n        uint256 numClonesInWild;\n    }\n\n    Kudo[] public kudos;\n\n    mapping(string => uint256) internal nameToTokenId;\n\n    function create(string name, string description, uint256 rareness, uint256 price, uint256 numClonesAllowed) public payable onlyOwner {\n        // Ensure that each Gen0 Kudos is unique\n        require(nameToTokenId[name] == 0);\n        uint256 _numClonesInWild = 0;\n\n        Kudo memory _kudo = Kudo({name: name, description: description, rareness: rareness, price: price, numClonesAllowed: numClonesAllowed, numClonesInWild: _numClonesInWild});\n        uint256 tokenId = kudos.push(_kudo) - 1;\n\n        _mint(msg.sender, tokenId);\n\n        nameToTokenId[name] = tokenId;\n    }\n\n    function clone(string name, uint256 numClonesRequested) public payable {\n        // Grab existing Kudo blueprint\n        Kudo memory _kudo = kudos[nameToTokenId[name]];\n        require(_kudo.numClonesInWild + numClonesRequested <= _kudo.numClonesAllowed);\n\n        // Update original kudo struct in the array\n        _kudo.numClonesInWild += numClonesRequested;\n        kudos[nameToTokenId[name]] = _kudo;\n\n        // Create new kudo, don't let it be cloned\n        for (uint i = 0; i < numClonesRequested; i++) {\n            Kudo memory _newKudo = _kudo;\n            _newKudo.numClonesAllowed = 0;\n            _newKudo.numClonesInWild = _kudo.numClonesInWild;\n\n            // The new kudo is pushed onto the array and minted\n            uint256 tokenId = kudos.push(_newKudo) - 1;\n\n            // There is a tokenId conflict when trying to mint because the Gen0 and reg kudos share\n            // the same token space\n            _mint(msg.sender, tokenId);\n        }\n\n    }\n\n    function burn(address owner, uint256 tokenId) public payable {\n        Kudo memory _kudo = kudos[tokenId];\n        delete nameToTokenId[_kudo.name];\n        _burn(owner, tokenId);\n    }\n\n    function getKudoById(uint256 tokenId) view public returns (string name, string description, uint256 rareness, uint256 price, uint256 numClonesAllowed, uint256 numClonesInWild) {\n        Kudo memory _kudo = kudos[tokenId];\n\n        name = _kudo.name;\n        description = _kudo.description;\n        rareness = _kudo.rareness;\n        price = _kudo.price;\n        numClonesAllowed = _kudo.numClonesAllowed;\n        numClonesInWild = _kudo.numClonesInWild;\n    }\n\n    // function getGen0KudoById(uint256 tokenId) view public returns (string name, string description, uint256 rareness, uint256 price, uint256 numClonesAllowed, uint256 numClonesInWild) {\n    //     Kudo memory _kudo = gen0kudos[tokenId];\n\n    //     name = _kudo.name;\n    //     description = _kudo.description;\n    //     rareness = _kudo.rareness;\n    //     price = _kudo.price;\n    //     numClonesAllowed = _kudo.numClonesAllowed;\n    //     numClonesInWild = _kudo.numClonesInWild;\n    // }\n\n\n    function getGen0TokenId(string name) view public returns (uint256) {\n        return nameToTokenId[name];\n    }\n\n}",
  "sourcePath": "/Users/jhaas/repos/gitcoin-erc721/contracts/Kudos.sol",
  "compiler": {
    "name": "solc",
    "version": "0.4.24+commit.e67f0147.Emscripten.clang"
  },
  "schemaVersion": "2.0.0",
  "updatedAt": "2018-07-11T21:50:54.433Z"
}