{
  "contractName": "Kudos",
  "abi": [
    {
      "constant": true,
      "inputs": [
        {
          "name": "_interfaceId",
          "type": "bytes4"
        }
      ],
      "name": "supportsInterface",
      "outputs": [
        {
          "name": "",
          "type": "bool"
        }
      ],
      "payable": false,
      "stateMutability": "view",
      "type": "function"
    },
    {
      "constant": true,
      "inputs": [],
      "name": "name",
      "outputs": [
        {
          "name": "",
          "type": "string"
        }
      ],
      "payable": false,
      "stateMutability": "view",
      "type": "function"
    },
    {
      "constant": true,
      "inputs": [
        {
          "name": "_tokenId",
          "type": "uint256"
        }
      ],
      "name": "getApproved",
      "outputs": [
        {
          "name": "",
          "type": "address"
        }
      ],
      "payable": false,
      "stateMutability": "view",
      "type": "function"
    },
    {
      "constant": false,
      "inputs": [
        {
          "name": "_to",
          "type": "address"
        },
        {
          "name": "_tokenId",
          "type": "uint256"
        }
      ],
      "name": "approve",
      "outputs": [],
      "payable": false,
      "stateMutability": "nonpayable",
      "type": "function"
    },
    {
      "constant": true,
      "inputs": [],
      "name": "totalSupply",
      "outputs": [
        {
          "name": "",
          "type": "uint256"
        }
      ],
      "payable": false,
      "stateMutability": "view",
      "type": "function"
    },
    {
      "constant": true,
      "inputs": [],
      "name": "InterfaceId_ERC165",
      "outputs": [
        {
          "name": "",
          "type": "bytes4"
        }
      ],
      "payable": false,
      "stateMutability": "view",
      "type": "function"
    },
    {
      "constant": false,
      "inputs": [
        {
          "name": "_from",
          "type": "address"
        },
        {
          "name": "_to",
          "type": "address"
        },
        {
          "name": "_tokenId",
          "type": "uint256"
        }
      ],
      "name": "transferFrom",
      "outputs": [],
      "payable": false,
      "stateMutability": "nonpayable",
      "type": "function"
    },
    {
      "constant": true,
      "inputs": [
        {
          "name": "_owner",
          "type": "address"
        },
        {
          "name": "_index",
          "type": "uint256"
        }
      ],
      "name": "tokenOfOwnerByIndex",
      "outputs": [
        {
          "name": "",
          "type": "uint256"
        }
      ],
      "payable": false,
      "stateMutability": "view",
      "type": "function"
    },
    {
      "constant": false,
      "inputs": [
        {
          "name": "_from",
          "type": "address"
        },
        {
          "name": "_to",
          "type": "address"
        },
        {
          "name": "_tokenId",
          "type": "uint256"
        }
      ],
      "name": "safeTransferFrom",
      "outputs": [],
      "payable": false,
      "stateMutability": "nonpayable",
      "type": "function"
    },
    {
      "constant": true,
      "inputs": [
        {
          "name": "_tokenId",
          "type": "uint256"
        }
      ],
      "name": "exists",
      "outputs": [
        {
          "name": "",
          "type": "bool"
        }
      ],
      "payable": false,
      "stateMutability": "view",
      "type": "function"
    },
    {
      "constant": true,
      "inputs": [
        {
          "name": "_index",
          "type": "uint256"
        }
      ],
      "name": "tokenByIndex",
      "outputs": [
        {
          "name": "",
          "type": "uint256"
        }
      ],
      "payable": false,
      "stateMutability": "view",
      "type": "function"
    },
    {
      "constant": true,
      "inputs": [
        {
          "name": "_tokenId",
          "type": "uint256"
        }
      ],
      "name": "ownerOf",
      "outputs": [
        {
          "name": "",
          "type": "address"
        }
      ],
      "payable": false,
      "stateMutability": "view",
      "type": "function"
    },
    {
      "constant": true,
      "inputs": [
        {
          "name": "_owner",
          "type": "address"
        }
      ],
      "name": "balanceOf",
      "outputs": [
        {
          "name": "",
          "type": "uint256"
        }
      ],
      "payable": false,
      "stateMutability": "view",
      "type": "function"
    },
    {
      "constant": false,
      "inputs": [],
      "name": "renounceOwnership",
      "outputs": [],
      "payable": false,
      "stateMutability": "nonpayable",
      "type": "function"
    },
    {
      "constant": true,
      "inputs": [
        {
          "name": "",
          "type": "uint256"
        }
      ],
      "name": "kudos",
      "outputs": [
        {
          "name": "priceFinney",
          "type": "uint256"
        },
        {
          "name": "numClonesAllowed",
          "type": "uint256"
        },
        {
          "name": "numClonesInWild",
          "type": "uint256"
        },
        {
          "name": "clonedFromId",
          "type": "uint256"
        }
      ],
      "payable": false,
      "stateMutability": "view",
      "type": "function"
    },
    {
      "constant": true,
      "inputs": [],
      "name": "owner",
      "outputs": [
        {
          "name": "",
          "type": "address"
        }
      ],
      "payable": false,
      "stateMutability": "view",
      "type": "function"
    },
    {
      "constant": true,
      "inputs": [],
      "name": "symbol",
      "outputs": [
        {
          "name": "",
          "type": "string"
        }
      ],
      "payable": false,
      "stateMutability": "view",
      "type": "function"
    },
    {
      "constant": false,
      "inputs": [
        {
          "name": "_to",
          "type": "address"
        },
        {
          "name": "_approved",
          "type": "bool"
        }
      ],
      "name": "setApprovalForAll",
      "outputs": [],
      "payable": false,
      "stateMutability": "nonpayable",
      "type": "function"
    },
    {
      "constant": false,
      "inputs": [
        {
          "name": "_from",
          "type": "address"
        },
        {
          "name": "_to",
          "type": "address"
        },
        {
          "name": "_tokenId",
          "type": "uint256"
        },
        {
          "name": "_data",
          "type": "bytes"
        }
      ],
      "name": "safeTransferFrom",
      "outputs": [],
      "payable": false,
      "stateMutability": "nonpayable",
      "type": "function"
    },
    {
      "constant": true,
      "inputs": [
        {
          "name": "_tokenId",
          "type": "uint256"
        }
      ],
      "name": "tokenURI",
      "outputs": [
        {
          "name": "",
          "type": "string"
        }
      ],
      "payable": false,
      "stateMutability": "view",
      "type": "function"
    },
    {
      "constant": true,
      "inputs": [
        {
          "name": "_owner",
          "type": "address"
        },
        {
          "name": "_operator",
          "type": "address"
        }
      ],
      "name": "isApprovedForAll",
      "outputs": [
        {
          "name": "",
          "type": "bool"
        }
      ],
      "payable": false,
      "stateMutability": "view",
      "type": "function"
    },
    {
      "constant": false,
      "inputs": [
        {
          "name": "_newOwner",
          "type": "address"
        }
      ],
      "name": "transferOwnership",
      "outputs": [],
      "payable": false,
      "stateMutability": "nonpayable",
      "type": "function"
    },
    {
      "anonymous": false,
      "inputs": [
        {
          "indexed": true,
          "name": "previousOwner",
          "type": "address"
        }
      ],
      "name": "OwnershipRenounced",
      "type": "event"
    },
    {
      "anonymous": false,
      "inputs": [
        {
          "indexed": true,
          "name": "previousOwner",
          "type": "address"
        },
        {
          "indexed": true,
          "name": "newOwner",
          "type": "address"
        }
      ],
      "name": "OwnershipTransferred",
      "type": "event"
    },
    {
      "anonymous": false,
      "inputs": [
        {
          "indexed": true,
          "name": "_from",
          "type": "address"
        },
        {
          "indexed": true,
          "name": "_to",
          "type": "address"
        },
        {
          "indexed": true,
          "name": "_tokenId",
          "type": "uint256"
        }
      ],
      "name": "Transfer",
      "type": "event"
    },
    {
      "anonymous": false,
      "inputs": [
        {
          "indexed": true,
          "name": "_owner",
          "type": "address"
        },
        {
          "indexed": true,
          "name": "_approved",
          "type": "address"
        },
        {
          "indexed": true,
          "name": "_tokenId",
          "type": "uint256"
        }
      ],
      "name": "Approval",
      "type": "event"
    },
    {
      "anonymous": false,
      "inputs": [
        {
          "indexed": true,
          "name": "_owner",
          "type": "address"
        },
        {
          "indexed": true,
          "name": "_operator",
          "type": "address"
        },
        {
          "indexed": false,
          "name": "_approved",
          "type": "bool"
        }
      ],
      "name": "ApprovalForAll",
      "type": "event"
    },
    {
      "constant": false,
      "inputs": [
        {
          "name": "_priceFinney",
          "type": "uint256"
        },
        {
          "name": "_numClonesAllowed",
          "type": "uint256"
        },
        {
          "name": "_tokenURI",
          "type": "string"
        }
      ],
      "name": "mint",
      "outputs": [
        {
          "name": "tokenId",
          "type": "uint256"
        }
      ],
      "payable": true,
      "stateMutability": "payable",
      "type": "function"
    },
    {
      "constant": false,
      "inputs": [
        {
          "name": "_tokenId",
          "type": "uint256"
        },
        {
          "name": "_numClonesRequested",
          "type": "uint256"
        }
      ],
      "name": "clone",
      "outputs": [],
      "payable": true,
      "stateMutability": "payable",
      "type": "function"
    },
    {
      "constant": false,
      "inputs": [
        {
          "name": "_tokenId",
          "type": "uint256"
        },
        {
          "name": "_numClonesRequested",
          "type": "uint256"
        },
        {
          "name": "_receiver",
          "type": "address"
        }
      ],
      "name": "cloneAndTransfer",
      "outputs": [],
      "payable": true,
      "stateMutability": "payable",
      "type": "function"
    },
    {
      "constant": false,
      "inputs": [
        {
          "name": "_owner",
          "type": "address"
        },
        {
          "name": "_tokenId",
          "type": "uint256"
        }
      ],
      "name": "burn",
      "outputs": [],
      "payable": true,
      "stateMutability": "payable",
      "type": "function"
    },
    {
      "constant": true,
      "inputs": [
        {
          "name": "_tokenId",
          "type": "uint256"
        }
      ],
      "name": "getKudosById",
      "outputs": [
        {
          "name": "priceFinney",
          "type": "uint256"
        },
        {
          "name": "numClonesAllowed",
          "type": "uint256"
        },
        {
          "name": "numClonesInWild",
          "type": "uint256"
        },
        {
          "name": "clonedFromId",
          "type": "uint256"
        }
      ],
      "payable": false,
      "stateMutability": "view",
      "type": "function"
    },
    {
      "constant": false,
      "inputs": [
        {
          "name": "_tokenId",
          "type": "uint256"
        },
        {
          "name": "_newPriceFinney",
          "type": "uint256"
        }
      ],
      "name": "updatePrice",
      "outputs": [],
      "payable": false,
      "stateMutability": "nonpayable",
      "type": "function"
    }
  ],
  "bytecode": "0x60806040526040805190810160405280600a81526020017f4b75646f73546f6b656e000000000000000000000000000000000000000000008152506040805190810160405280600381526020017f4b444f0000000000000000000000000000000000000000000000000000000000815250620000ad6301ffc9a77c0100000000000000000000000000000000000000000000000000000000026200021c640100000000026401000000009004565b620000ea6380ac58cd7c0100000000000000000000000000000000000000000000000000000000026200021c640100000000026401000000009004565b62000127634f558e797c0100000000000000000000000000000000000000000000000000000000026200021c640100000000026401000000009004565b81600590805190602001906200013f929190620002da565b50806006908051906020019062000158929190620002da565b506200019663780e9d637c0100000000000000000000000000000000000000000000000000000000026200021c640100000000026401000000009004565b620001d3635b5e139f7c0100000000000000000000000000000000000000000000000000000000026200021c640100000000026401000000009004565b505033600c60006101000a81548173ffffffffffffffffffffffffffffffffffffffff021916908373ffffffffffffffffffffffffffffffffffffffff16021790555062000389565b63ffffffff7c010000000000000000000000000000000000000000000000000000000002817bffffffffffffffffffffffffffffffffffffffffffffffffffffffff1916141515156200026e57600080fd5b6001600080837bffffffffffffffffffffffffffffffffffffffffffffffffffffffff19167bffffffffffffffffffffffffffffffffffffffffffffffffffffffff1916815260200190815260200160002060006101000a81548160ff02191690831515021790555050565b828054600181600116156101000203166002900490600052602060002090601f016020900481019282601f106200031d57805160ff19168380011785556200034e565b828001600101855582156200034e579182015b828111156200034d57825182559160200191906001019062000330565b5b5090506200035d919062000361565b5090565b6200038691905b808211156200038257600081600090555060010162000368565b5090565b90565b61310480620003996000396000f30060806040526004361061016a576000357c0100000000000000000000000000000000000000000000000000000000900463ffffffff16806301ffc9a71461016f57806306fdde03146101d3578063081812fc14610263578063095ea7b3146102d057806318160ddd1461031d57806319fa8f501461034857806323b872dd146103b15780632f745c591461041e57806342842e0e1461047f578063442dbdc3146104ec5780634f558e79146105165780634f6ccce71461055b5780636352211e1461059c578063646d978b1461060957806370a082311461065f578063715018a6146106b65780637f180db7146106cd57806382367b2d146107235780638da5cb5b1461075a57806395d89b41146107b15780639dc29fac14610841578063a22cb46514610881578063b88d4fde146108d0578063c6e64e5314610983578063c87b56dd14610a07578063d319784f14610aad578063e985e9c514610af7578063f2fde38b14610b72575b600080fd5b34801561017b57600080fd5b506101b960048036038101908080357bffffffffffffffffffffffffffffffffffffffffffffffffffffffff19169060200190929190505050610bb5565b604051808215151515815260200191505060405180910390f35b3480156101df57600080fd5b506101e8610c1c565b6040518080602001828103825283818151815260200191508051906020019080838360005b8381101561022857808201518184015260208101905061020d565b50505050905090810190601f1680156102555780820380516001836020036101000a031916815260200191505b509250505060405180910390f35b34801561026f57600080fd5b5061028e60048036038101908080359060200190929190505050610cbe565b604051808273ffffffffffffffffffffffffffffffffffffffff1673ffffffffffffffffffffffffffffffffffffffff16815260200191505060405180910390f35b3480156102dc57600080fd5b5061031b600480360381019080803573ffffffffffffffffffffffffffffffffffffffff16906020019092919080359060200190929190505050610cfb565b005b34801561032957600080fd5b50610332610e40565b6040518082815260200191505060405180910390f35b34801561035457600080fd5b5061035d610e4d565b60405180827bffffffffffffffffffffffffffffffffffffffffffffffffffffffff19167bffffffffffffffffffffffffffffffffffffffffffffffffffffffff1916815260200191505060405180910390f35b3480156103bd57600080fd5b5061041c600480360381019080803573ffffffffffffffffffffffffffffffffffffffff169060200190929190803573ffffffffffffffffffffffffffffffffffffffff16906020019092919080359060200190929190505050610e74565b005b34801561042a57600080fd5b50610469600480360381019080803573ffffffffffffffffffffffffffffffffffffffff16906020019092919080359060200190929190505050610f7f565b6040518082815260200191505060405180910390f35b34801561048b57600080fd5b506104ea600480360381019080803573ffffffffffffffffffffffffffffffffffffffff169060200190929190803573ffffffffffffffffffffffffffffffffffffffff16906020019092919080359060200190929190505050610ff6565b005b6105146004803603810190808035906020019092919080359060200190929190505050611017565b005b34801561052257600080fd5b5061054160048036038101908080359060200190929190505050611370565b604051808215151515815260200191505060405180910390f35b34801561056757600080fd5b50610586600480360381019080803590602001909291905050506113e2565b6040518082815260200191505060405180910390f35b3480156105a857600080fd5b506105c76004803603810190808035906020019092919050505061141a565b604051808273ffffffffffffffffffffffffffffffffffffffff1673ffffffffffffffffffffffffffffffffffffffff16815260200191505060405180910390f35b34801561061557600080fd5b5061063460048036038101908080359060200190929190505050611498565b6040518085815260200184815260200183815260200182815260200194505050505060405180910390f35b34801561066b57600080fd5b506106a0600480360381019080803573ffffffffffffffffffffffffffffffffffffffff16906020019092919050505061151d565b6040518082815260200191505060405180910390f35b3480156106c257600080fd5b506106cb6115a1565b005b3480156106d957600080fd5b506106f8600480360381019080803590602001909291905050506116a6565b6040518085815260200184815260200183815260200182815260200194505050505060405180910390f35b34801561072f57600080fd5b5061075860048036038101908080359060200190929190803590602001909291905050506116e5565b005b34801561076657600080fd5b5061076f6117f4565b604051808273ffffffffffffffffffffffffffffffffffffffff1673ffffffffffffffffffffffffffffffffffffffff16815260200191505060405180910390f35b3480156107bd57600080fd5b506107c661181a565b6040518080602001828103825283818151815260200191508051906020019080838360005b838110156108065780820151818401526020810190506107eb565b50505050905090810190601f1680156108335780820380516001836020036101000a031916815260200191505b509250505060405180910390f35b61087f600480360381019080803573ffffffffffffffffffffffffffffffffffffffff169060200190929190803590602001909291905050506118bc565b005b34801561088d57600080fd5b506108ce600480360381019080803573ffffffffffffffffffffffffffffffffffffffff169060200190929190803515159060200190929190505050611a42565b005b3480156108dc57600080fd5b50610981600480360381019080803573ffffffffffffffffffffffffffffffffffffffff169060200190929190803573ffffffffffffffffffffffffffffffffffffffff16906020019092919080359060200190929190803590602001908201803590602001908080601f0160208091040260200160405190810160405280939291908181526020018383808284378201915050505050509192919290505050611b7e565b005b6109f16004803603810190808035906020019092919080359060200190929190803590602001908201803590602001908080601f0160208091040260200160405190810160405280939291908181526020018383808284378201915050505050509192919290505050611ba6565b6040518082815260200191505060405180910390f35b348015610a1357600080fd5b50610a3260048036038101908080359060200190929190505050611d74565b6040518080602001828103825283818151815260200191508051906020019080838360005b83811015610a72578082015181840152602081019050610a57565b50505050905090810190601f168015610a9f5780820380516001836020036101000a031916815260200191505b509250505060405180910390f35b610af56004803603810190808035906020019092919080359060200190929190803573ffffffffffffffffffffffffffffffffffffffff169060200190929190505050611e3d565b005b348015610b0357600080fd5b50610b58600480360381019080803573ffffffffffffffffffffffffffffffffffffffff169060200190929190803573ffffffffffffffffffffffffffffffffffffffff169060200190929190505050612197565b604051808215151515815260200191505060405180910390f35b348015610b7e57600080fd5b50610bb3600480360381019080803573ffffffffffffffffffffffffffffffffffffffff16906020019092919050505061222b565b005b6000806000837bffffffffffffffffffffffffffffffffffffffffffffffffffffffff19167bffffffffffffffffffffffffffffffffffffffffffffffffffffffff1916815260200190815260200160002060009054906101000a900460ff169050919050565b606060058054600181600116156101000203166002900480601f016020809104026020016040519081016040528092919081815260200182805460018160011615610100020316600290048015610cb45780601f10610c8957610100808354040283529160200191610cb4565b820191906000526020600020905b815481529060010190602001808311610c9757829003601f168201915b5050505050905090565b60006002600083815260200190815260200160002060009054906101000a900473ffffffffffffffffffffffffffffffffffffffff169050919050565b6000610d068261141a565b90508073ffffffffffffffffffffffffffffffffffffffff168373ffffffffffffffffffffffffffffffffffffffff1614151515610d4357600080fd5b8073ffffffffffffffffffffffffffffffffffffffff163373ffffffffffffffffffffffffffffffffffffffff161480610d835750610d828133612197565b5b1515610d8e57600080fd5b826002600084815260200190815260200160002060006101000a81548173ffffffffffffffffffffffffffffffffffffffff021916908373ffffffffffffffffffffffffffffffffffffffff160217905550818373ffffffffffffffffffffffffffffffffffffffff168273ffffffffffffffffffffffffffffffffffffffff167f8c5be1e5ebec7d5bd14f71427d1e84f3dd0314c0f7b2291e5b200ac8c7c3b92560405160405180910390a4505050565b6000600980549050905090565b6301ffc9a77c01000000000000000000000000000000000000000000000000000000000281565b610e7e3382612293565b1515610e8957600080fd5b600073ffffffffffffffffffffffffffffffffffffffff168373ffffffffffffffffffffffffffffffffffffffff1614151515610ec557600080fd5b600073ffffffffffffffffffffffffffffffffffffffff168273ffffffffffffffffffffffffffffffffffffffff1614151515610f0157600080fd5b610f0b8382612328565b610f15838261242b565b610f1f82826125e7565b808273ffffffffffffffffffffffffffffffffffffffff168473ffffffffffffffffffffffffffffffffffffffff167fddf252ad1be2c89b69c2b068fc378daa952ba7f163c4a11628f55a4df523b3ef60405160405180910390a4505050565b6000610f8a8361151d565b82101515610f9757600080fd5b600760008473ffffffffffffffffffffffffffffffffffffffff1673ffffffffffffffffffffffffffffffffffffffff16815260200190815260200160002082815481101515610fe357fe5b9060005260206000200154905092915050565b6110128383836020604051908101604052806000815250611b7e565b505050565b61101f612f96565b6000611029612f96565b60006060600d8781548110151561103c57fe5b90600052602060002090600402016080604051908101604052908160008201548152602001600182015481526020016002820154815260200160038201548152505094508460200151868660400151011115151561114e576040517f08c379a000000000000000000000000000000000000000000000000000000000815260040180806020018281038252604a8152602001807f546865206e756d626572206f66204b75646f7320636c6f6e657320726571756581526020017f73746564206578636565647320746865206e756d626572206f6620636c6f6e6581526020017f7320616c6c6f7765642e0000000000000000000000000000000000000000000081525060600191505060405180910390fd5b8566038d7ea4c680008660000151020234101515156111fb576040517f08c379a000000000000000000000000000000000000000000000000000000000815260040180806020018281038252602b8152602001807f4e6f7420656e6f7567682057656920746f2070617920666f7220746865204b7581526020017f646f7320636c6f6e65732e00000000000000000000000000000000000000000081525060400191505060405180910390fd5b6112048761141a565b73ffffffffffffffffffffffffffffffffffffffff166108fc349081150290604051600060405180830381858888f19350505050158015611249573d6000803e3d6000fd5b508585604001818151019150818152505084600d8881548110151561126a57fe5b906000526020600020906004020160008201518160000155602082015181600101556040820151816002015560608201518160030155905050600093505b8584101561136757846000015183600001818152505060008360200181815250506000836040018181525050868360600181815250506001600d849080600181540180825580915050906001820390600052602060002090600402016000909192909190915060008201518160000155602082015181600101556040820151816002015560608201518160030155505003915061134533836126be565b61134e87611d74565b905061135a8282612715565b83806001019450506112a8565b50505050505050565b6000806001600084815260200190815260200160002060009054906101000a900473ffffffffffffffffffffffffffffffffffffffff169050600073ffffffffffffffffffffffffffffffffffffffff168173ffffffffffffffffffffffffffffffffffffffff161415915050919050565b60006113ec610e40565b821015156113f957600080fd5b60098281548110151561140857fe5b90600052602060002001549050919050565b6000806001600084815260200190815260200160002060009054906101000a900473ffffffffffffffffffffffffffffffffffffffff169050600073ffffffffffffffffffffffffffffffffffffffff168173ffffffffffffffffffffffffffffffffffffffff161415151561148f57600080fd5b80915050919050565b6000806000806114a6612f96565b600d868154811015156114b557fe5b906000526020600020906004020160806040519081016040529081600082015481526020016001820154815260200160028201548152602001600382015481525050905080600001519450806020015193508060400151925080606001519150509193509193565b60008073ffffffffffffffffffffffffffffffffffffffff168273ffffffffffffffffffffffffffffffffffffffff161415151561155a57600080fd5b600360008373ffffffffffffffffffffffffffffffffffffffff1673ffffffffffffffffffffffffffffffffffffffff168152602001908152602001600020549050919050565b600c60009054906101000a900473ffffffffffffffffffffffffffffffffffffffff1673ffffffffffffffffffffffffffffffffffffffff163373ffffffffffffffffffffffffffffffffffffffff161415156115fd57600080fd5b600c60009054906101000a900473ffffffffffffffffffffffffffffffffffffffff1673ffffffffffffffffffffffffffffffffffffffff167ff8df31144d9c2f0f6b59d69b8b98abd5459d07f2742c4df920b25aae33c6482060405160405180910390a26000600c60006101000a81548173ffffffffffffffffffffffffffffffffffffffff021916908373ffffffffffffffffffffffffffffffffffffffff160217905550565b600d818154811015156116b557fe5b90600052602060002090600402016000915090508060000154908060010154908060020154908060030154905084565b6116ed612f96565b600c60009054906101000a900473ffffffffffffffffffffffffffffffffffffffff1673ffffffffffffffffffffffffffffffffffffffff163373ffffffffffffffffffffffffffffffffffffffff1614151561174957600080fd5b600d8381548110151561175857fe5b90600052602060002090600402016080604051908101604052908160008201548152602001600182015481526020016002820154815260200160038201548152505090508181600001818152505080600d848154811015156117b657fe5b906000526020600020906004020160008201518160000155602082015181600101556040820151816002015560608201518160030155905050505050565b600c60009054906101000a900473ffffffffffffffffffffffffffffffffffffffff1681565b606060068054600181600116156101000203166002900480601f0160208091040260200160405190810160405280929190818152602001828054600181600116156101000203166002900480156118b25780601f10611887576101008083540402835291602001916118b2565b820191906000526020600020905b81548152906001019060200180831161189557829003601f168201915b5050505050905090565b6118c4612f96565b60006118ce612f96565b600c60009054906101000a900473ffffffffffffffffffffffffffffffffffffffff1673ffffffffffffffffffffffffffffffffffffffff163373ffffffffffffffffffffffffffffffffffffffff1614151561192a57600080fd5b600d8481548110151561193957fe5b906000526020600020906004020160806040519081016040529081600082015481526020016001820154815260200160028201548152602001600382015481525050925082606001519150600d8281548110151561199357fe5b9060005260206000209060040201608060405190810160405290816000820154815260200160018201548152602001600282015481526020016003820154815250509050600181604001818151039150818152505080600d838154811015156119f857fe5b906000526020600020906004020160008201518160000155602082015181600101556040820151816002015560608201518160030155905050611a3b8585612755565b5050505050565b3373ffffffffffffffffffffffffffffffffffffffff168273ffffffffffffffffffffffffffffffffffffffff1614151515611a7d57600080fd5b80600460003373ffffffffffffffffffffffffffffffffffffffff1673ffffffffffffffffffffffffffffffffffffffff16815260200190815260200160002060008473ffffffffffffffffffffffffffffffffffffffff1673ffffffffffffffffffffffffffffffffffffffff16815260200190815260200160002060006101000a81548160ff0219169083151502179055508173ffffffffffffffffffffffffffffffffffffffff163373ffffffffffffffffffffffffffffffffffffffff167f17307eab39ab6107e8899845ad3d59bd9653f200f220920489ca2b5937696c3183604051808215151515815260200191505060405180910390a35050565b611b89848484610e74565b611b958484848461288d565b1515611ba057600080fd5b50505050565b6000806000611bb3612f96565b611bbb612f96565b600c60009054906101000a900473ffffffffffffffffffffffffffffffffffffffff1673ffffffffffffffffffffffffffffffffffffffff163373ffffffffffffffffffffffffffffffffffffffff16141515611c1757600080fd5b60009350600092506080604051908101604052808981526020018881526020018581526020018481525091506000600d805490501415611cd35760806040519081016040528060008152602001600081526020016000815260200160008152509050600d8190806001815401808255809150509060018203906000526020600020906004020160009091929091909150600082015181600001556020820151816001015560408201518160020155606082015181600301555050505b6001600d839080600181540180825580915050906001820390600052602060002090600402016000909192909190915060008201518160000155602082015181600101556040820151816002015560608201518160030155505003945084600d86815481101515611d4057fe5b906000526020600020906004020160030181905550611d5f33866126be565b611d698587612715565b505050509392505050565b6060611d7f82611370565b1515611d8a57600080fd5b600b60008381526020019081526020016000208054600181600116156101000203166002900480601f016020809104026020016040519081016040528092919081815260200182805460018160011615610100020316600290048015611e315780601f10611e0657610100808354040283529160200191611e31565b820191906000526020600020905b815481529060010190602001808311611e1457829003601f168201915b50505050509050919050565b611e45612f96565b6000611e4f612f96565b60006060600d88815481101515611e6257fe5b906000526020600020906004020160806040519081016040529081600082015481526020016001820154815260200160028201548152602001600382015481525050945084602001518786604001510111151515611f74576040517f08c379a000000000000000000000000000000000000000000000000000000000815260040180806020018281038252604a8152602001807f546865206e756d626572206f66204b75646f7320636c6f6e657320726571756581526020017f73746564206578636565647320746865206e756d626572206f6620636c6f6e6581526020017f7320616c6c6f7765642e0000000000000000000000000000000000000000000081525060600191505060405180910390fd5b8666038d7ea4c68000866000015102023410151515612021576040517f08c379a000000000000000000000000000000000000000000000000000000000815260040180806020018281038252602b8152602001807f4e6f7420656e6f7567682057656920746f2070617920666f7220746865204b7581526020017f646f7320636c6f6e65732e00000000000000000000000000000000000000000081525060400191505060405180910390fd5b61202a8861141a565b73ffffffffffffffffffffffffffffffffffffffff166108fc349081150290604051600060405180830381858888f1935050505015801561206f573d6000803e3d6000fd5b508685604001818151019150818152505084600d8981548110151561209057fe5b906000526020600020906004020160008201518160000155602082015181600101556040820151816002015560608201518160030155905050600093505b8684101561218d57846000015183600001818152505060008360200181815250506000836040018181525050878360600181815250506001600d849080600181540180825580915050906001820390600052602060002090600402016000909192909190915060008201518160000155602082015181600101556040820151816002015560608201518160030155505003915061216b86836126be565b61217488611d74565b90506121808282612715565b83806001019450506120ce565b5050505050505050565b6000600460008473ffffffffffffffffffffffffffffffffffffffff1673ffffffffffffffffffffffffffffffffffffffff16815260200190815260200160002060008373ffffffffffffffffffffffffffffffffffffffff1673ffffffffffffffffffffffffffffffffffffffff16815260200190815260200160002060009054906101000a900460ff16905092915050565b600c60009054906101000a900473ffffffffffffffffffffffffffffffffffffffff1673ffffffffffffffffffffffffffffffffffffffff163373ffffffffffffffffffffffffffffffffffffffff1614151561228757600080fd5b61229081612aaf565b50565b60008061229f8361141a565b90508073ffffffffffffffffffffffffffffffffffffffff168473ffffffffffffffffffffffffffffffffffffffff16148061230e57508373ffffffffffffffffffffffffffffffffffffffff166122f684610cbe565b73ffffffffffffffffffffffffffffffffffffffff16145b8061231f575061231e8185612197565b5b91505092915050565b8173ffffffffffffffffffffffffffffffffffffffff166123488261141a565b73ffffffffffffffffffffffffffffffffffffffff1614151561236a57600080fd5b600073ffffffffffffffffffffffffffffffffffffffff166002600083815260200190815260200160002060009054906101000a900473ffffffffffffffffffffffffffffffffffffffff1673ffffffffffffffffffffffffffffffffffffffff161415156124275760006002600083815260200190815260200160002060006101000a81548173ffffffffffffffffffffffffffffffffffffffff021916908373ffffffffffffffffffffffffffffffffffffffff1602179055505b5050565b600080600061243a8585612bab565b600860008581526020019081526020016000205492506124a66001600760008873ffffffffffffffffffffffffffffffffffffffff1673ffffffffffffffffffffffffffffffffffffffff16815260200190815260200160002080549050612cda90919063ffffffff16565b9150600760008673ffffffffffffffffffffffffffffffffffffffff1673ffffffffffffffffffffffffffffffffffffffff168152602001908152602001600020828154811015156124f457fe5b9060005260206000200154905080600760008773ffffffffffffffffffffffffffffffffffffffff1673ffffffffffffffffffffffffffffffffffffffff1681526020019081526020016000208481548110151561254e57fe5b9060005260206000200181905550600760008673ffffffffffffffffffffffffffffffffffffffff1673ffffffffffffffffffffffffffffffffffffffff1681526020019081526020016000208054809190600190036125ae9190612fbf565b50600060086000868152602001908152602001600020819055508260086000838152602001908152602001600020819055505050505050565b60006125f38383612cf3565b600760008473ffffffffffffffffffffffffffffffffffffffff1673ffffffffffffffffffffffffffffffffffffffff168152602001908152602001600020805490509050600760008473ffffffffffffffffffffffffffffffffffffffff1673ffffffffffffffffffffffffffffffffffffffff168152602001908152602001600020829080600181540180825580915050906001820390600052602060002001600090919290919091505550806008600084815260200190815260200160002081905550505050565b6126c88282612e4d565b600980549050600a60008381526020019081526020016000208190555060098190806001815401808255809150509060018203906000526020600020016000909192909190915055505050565b61271e82611370565b151561272957600080fd5b80600b60008481526020019081526020016000209080519060200190612750929190612feb565b505050565b60008060006127648585612ef3565b6000600b60008681526020019081526020016000208054600181600116156101000203166002900490501415156127b557600b600085815260200190815260200160002060006127b4919061306b565b5b600a60008581526020019081526020016000205492506127e46001600980549050612cda90919063ffffffff16565b91506009828154811015156127f557fe5b906000526020600020015490508060098481548110151561281257fe5b9060005260206000200181905550600060098381548110151561283157fe5b906000526020600020018190555060098054809190600190036128549190612fbf565b506000600a60008681526020019081526020016000208190555082600a6000838152602001908152602001600020819055505050505050565b6000806128af8573ffffffffffffffffffffffffffffffffffffffff16612f67565b15156128be5760019150612aa6565b8473ffffffffffffffffffffffffffffffffffffffff1663150b7a02338887876040518563ffffffff167c0100000000000000000000000000000000000000000000000000000000028152600401808573ffffffffffffffffffffffffffffffffffffffff1673ffffffffffffffffffffffffffffffffffffffff1681526020018473ffffffffffffffffffffffffffffffffffffffff1673ffffffffffffffffffffffffffffffffffffffff16815260200183815260200180602001828103825283818151815260200191508051906020019080838360005b838110156129b3578082015181840152602081019050612998565b50505050905090810190601f1680156129e05780820380516001836020036101000a031916815260200191505b5095505050505050602060405180830381600087803b158015612a0257600080fd5b505af1158015612a16573d6000803e3d6000fd5b505050506040513d6020811015612a2c57600080fd5b8101908080519060200190929190505050905063150b7a027c0100000000000000000000000000000000000000000000000000000000027bffffffffffffffffffffffffffffffffffffffffffffffffffffffff1916817bffffffffffffffffffffffffffffffffffffffffffffffffffffffff19161491505b50949350505050565b600073ffffffffffffffffffffffffffffffffffffffff168173ffffffffffffffffffffffffffffffffffffffff1614151515612aeb57600080fd5b8073ffffffffffffffffffffffffffffffffffffffff16600c60009054906101000a900473ffffffffffffffffffffffffffffffffffffffff1673ffffffffffffffffffffffffffffffffffffffff167f8be0079c531659141344cd1fd0a4f28419497f9722a3daafe3b4186f6b6457e060405160405180910390a380600c60006101000a81548173ffffffffffffffffffffffffffffffffffffffff021916908373ffffffffffffffffffffffffffffffffffffffff16021790555050565b8173ffffffffffffffffffffffffffffffffffffffff16612bcb8261141a565b73ffffffffffffffffffffffffffffffffffffffff16141515612bed57600080fd5b612c406001600360008573ffffffffffffffffffffffffffffffffffffffff1673ffffffffffffffffffffffffffffffffffffffff16815260200190815260200160002054612cda90919063ffffffff16565b600360008473ffffffffffffffffffffffffffffffffffffffff1673ffffffffffffffffffffffffffffffffffffffff1681526020019081526020016000208190555060006001600083815260200190815260200160002060006101000a81548173ffffffffffffffffffffffffffffffffffffffff021916908373ffffffffffffffffffffffffffffffffffffffff1602179055505050565b6000828211151515612ce857fe5b818303905092915050565b600073ffffffffffffffffffffffffffffffffffffffff166001600083815260200190815260200160002060009054906101000a900473ffffffffffffffffffffffffffffffffffffffff1673ffffffffffffffffffffffffffffffffffffffff16141515612d6157600080fd5b816001600083815260200190815260200160002060006101000a81548173ffffffffffffffffffffffffffffffffffffffff021916908373ffffffffffffffffffffffffffffffffffffffff160217905550612e066001600360008573ffffffffffffffffffffffffffffffffffffffff1673ffffffffffffffffffffffffffffffffffffffff16815260200190815260200160002054612f7a90919063ffffffff16565b600360008473ffffffffffffffffffffffffffffffffffffffff1673ffffffffffffffffffffffffffffffffffffffff168152602001908152602001600020819055505050565b600073ffffffffffffffffffffffffffffffffffffffff168273ffffffffffffffffffffffffffffffffffffffff1614151515612e8957600080fd5b612e9382826125e7565b808273ffffffffffffffffffffffffffffffffffffffff16600073ffffffffffffffffffffffffffffffffffffffff167fddf252ad1be2c89b69c2b068fc378daa952ba7f163c4a11628f55a4df523b3ef60405160405180910390a45050565b612efd8282612328565b612f07828261242b565b80600073ffffffffffffffffffffffffffffffffffffffff168373ffffffffffffffffffffffffffffffffffffffff167fddf252ad1be2c89b69c2b068fc378daa952ba7f163c4a11628f55a4df523b3ef60405160405180910390a45050565b600080823b905060008111915050919050565b60008183019050828110151515612f8d57fe5b80905092915050565b608060405190810160405280600081526020016000815260200160008152602001600081525090565b815481835581811115612fe657818360005260206000209182019101612fe591906130b3565b5b505050565b828054600181600116156101000203166002900490600052602060002090601f016020900481019282601f1061302c57805160ff191683800117855561305a565b8280016001018555821561305a579182015b8281111561305957825182559160200191906001019061303e565b5b50905061306791906130b3565b5090565b50805460018160011615610100020316600290046000825580601f1061309157506130b0565b601f0160209004906000526020600020908101906130af91906130b3565b5b50565b6130d591905b808211156130d15760008160009055506001016130b9565b5090565b905600a165627a7a7230582062470519232432e65acdb4ce368b581da085db939889492f80bf810a804826270029",
  "source": "pragma solidity ^0.4.24;\n\nimport 'zeppelin-solidity/contracts/token/ERC721/ERC721Token.sol';\nimport 'zeppelin-solidity/contracts/ownership/Ownable.sol';\n\n/// @title Kudos\n/// @author Jason Haas <jasonrhaas@gmail.com>\n/// @notice Kudos ERC721 interface for minting, cloning, and transferring Kudos tokens.\ncontract Kudos is ERC721Token(\"KudosToken\", \"KDO\"), Ownable { \n    struct Kudo {\n        // string name;\n        // string description;\n        // uint256 rarity;\n        uint256 priceFinney;\n        uint256 numClonesAllowed;\n        uint256 numClonesInWild;\n        // string tags;\n        // string image;\n        uint256 clonedFromId;\n    }\n\n    Kudo[] public kudos;\n\n    // mapping(string => uint256) internal nameToTokenId;\n\n    /// @dev mint(): Mint a new Gen0 Kudos.  These are the tokens that other Kudos will be \"cloned from\".\n    /// @param _priceFinney Price of the Kudos in Finney.\n    /// @param _numClonesAllowed Maximum number of times this Kudos is allowed to be cloned.\n    /// @param _tokenURI A URL to the JSON file containing the metadata for the Kudos.  See metadata.json for an example.\n    /// @return the tokenId of the Kudos that has been minted.  Note that in a transaction only the tx_hash is returned.\n    function mint(uint256 _priceFinney, uint256 _numClonesAllowed, string _tokenURI) public payable onlyOwner returns (uint256 tokenId) {\n        // Ensure that each Gen0 Kudos is unique\n        // require(nameToTokenId[name] == 0);\n        uint256 _numClonesInWild = 0;\n        uint256 _clonedFromId = 0;\n\n        Kudo memory _kudo = Kudo({priceFinney: _priceFinney, numClonesAllowed: _numClonesAllowed,\n                                  numClonesInWild: _numClonesInWild, clonedFromId: _clonedFromId\n                                  });\n        // The new kudo is pushed onto the array and minted\n        // Note that Solidity uses 0 as a default value when an item is not found in a mapping.\n\n        // If the array is new, skip over the first index.\n        if(kudos.length == 0) {\n            Kudo memory _dummyKudo = Kudo({priceFinney: 0,numClonesAllowed: 0, numClonesInWild: 0,\n                                           clonedFromId: 0\n                                           });\n            kudos.push(_dummyKudo);\n        }\n        tokenId = kudos.push(_kudo) - 1;\n        kudos[tokenId].clonedFromId = tokenId;\n\n        _mint(msg.sender, tokenId);\n        _setTokenURI(tokenId, _tokenURI);\n\n        // nameToTokenId[name] = tokenId;\n    }\n\n    /// @dev clone(): Clone a new Kudos from a Gen0 Kudos.\n    /// @param _tokenId The token id of the Kudos to clone and transfer.\n    /// @param _numClonesRequested Number of clones to generate.\n    function clone(uint256 _tokenId, uint256 _numClonesRequested) public payable {\n        // Grab existing Kudo blueprint\n        // uint256 gen0KudosId = nameToTokenId[name];\n        Kudo memory _kudo = kudos[_tokenId];\n        require(\n            _kudo.numClonesInWild + _numClonesRequested <= _kudo.numClonesAllowed,\n            \"The number of Kudos clones requested exceeds the number of clones allowed.\");\n        require(\n            msg.value >= _kudo.priceFinney * 10**15 * _numClonesRequested,\n            \"Not enough Wei to pay for the Kudos clones.\");\n\n        // Transfer the msg.value to the Gen0 Kudos owner to pay for the Kudos clone(s).\n        ownerOf(_tokenId).transfer(msg.value);\n\n        // Update original kudo struct in the array\n        _kudo.numClonesInWild += _numClonesRequested;\n        kudos[_tokenId] = _kudo;\n\n        // Create new kudo, don't let it be cloned\n        for (uint i = 0; i < _numClonesRequested; i++) {\n            Kudo memory _newKudo;\n            _newKudo.priceFinney = _kudo.priceFinney;\n            _newKudo.numClonesAllowed = 0;\n            _newKudo.numClonesInWild = 0;\n            _newKudo.clonedFromId = _tokenId;\n\n            // Note that Solidity uses 0 as a default value when an item is not found in a mapping.\n            uint256 newTokenId = kudos.push(_newKudo) - 1;\n\n            // Mint the new kudos to the msg.sender's account\n            _mint(msg.sender, newTokenId);\n\n            // Use the same tokenURI metadata from the Gen0 Kudos\n            string memory _tokenURI = tokenURI(_tokenId);\n            _setTokenURI(newTokenId, _tokenURI);\n        }\n    }\n\n    /// @dev cloneAndTransfer(): Clone a new Kudos and then transfer it to a different address.\n    /// @param _tokenId The token id of the Kudos to clone and transfer.\n    /// @param _numClonesRequested Number of clones to generate.\n    /// @param _receiver The address to transfer the Kudos to after it's cloned.\n    function cloneAndTransfer(uint256 _tokenId, uint256 _numClonesRequested, address _receiver) public payable {\n        // Grab existing Kudo blueprint\n        // uint256 gen0KudosId = nameToTokenId[name];\n        Kudo memory _kudo = kudos[_tokenId];\n        require(\n            _kudo.numClonesInWild + _numClonesRequested <= _kudo.numClonesAllowed,\n            \"The number of Kudos clones requested exceeds the number of clones allowed.\");\n        require(\n            msg.value >= _kudo.priceFinney * 10**15 * _numClonesRequested,\n            \"Not enough Wei to pay for the Kudos clones.\");\n\n        // Transfer the msg.value to the Gen0 Kudos owner to pay for the Kudos clone(s).\n        ownerOf(_tokenId).transfer(msg.value);\n\n        // Update original kudo struct in the array\n        _kudo.numClonesInWild += _numClonesRequested;\n        kudos[_tokenId] = _kudo;\n\n        // Create new kudo, don't let it be cloned\n        for (uint i = 0; i < _numClonesRequested; i++) {\n            Kudo memory _newKudo;\n            _newKudo.priceFinney = _kudo.priceFinney;\n            _newKudo.numClonesAllowed = 0;\n            _newKudo.numClonesInWild = 0;\n            _newKudo.clonedFromId = _tokenId;\n\n            // Note that Solidity uses 0 as a default value when an item is not found in a mapping.\n            uint256 newTokenId = kudos.push(_newKudo) - 1;\n\n            _mint(_receiver, newTokenId);\n\n            // Use the same tokenURI metadata from the Gen0 Kudos\n            string memory _tokenURI = tokenURI(_tokenId);\n            _setTokenURI(newTokenId, _tokenURI);\n        }\n    }\n\n    /// @dev burn(): Burn Kudos token.\n    /// @param _owner The owner address of the token to burn.\n    /// TODO:  Do we need to pay the owner or can we use the ``ownerOf()` function?\n    /// @param _tokenId The Kudos ID to be burned.\n    function burn(address _owner, uint256 _tokenId) public payable onlyOwner {\n        Kudo memory _kudo = kudos[_tokenId];\n        uint256 gen0Id = _kudo.clonedFromId;\n        Kudo memory _gen0Kudo = kudos[gen0Id];\n        _gen0Kudo.numClonesInWild -= 1;\n        kudos[gen0Id] = _gen0Kudo;\n        _burn(_owner, _tokenId);\n    }\n\n    /// @dev getKudosById(): Return a Kudos struct/array given a Kudos Id. \n    /// @param _tokenId The Kudos Id.\n    /// @return the Kudos struct, in array form.\n    function getKudosById(uint256 _tokenId) view public returns (uint256 priceFinney,\n                                                                uint256 numClonesAllowed,\n                                                                uint256 numClonesInWild,\n                                                                uint256 clonedFromId\n                                                                )\n    {\n        Kudo memory _kudo = kudos[_tokenId];\n\n        priceFinney = _kudo.priceFinney;\n        numClonesAllowed = _kudo.numClonesAllowed;\n        numClonesInWild = _kudo.numClonesInWild;\n        clonedFromId = _kudo.clonedFromId;\n    }\n\n    /// @dev updatePrice(): Update the Kudos listing price.\n    /// @param _tokenId The Kudos Id.\n    /// @param _newPriceFinney The new price of the Kudos.\n    /// @return the Kudos struct, in array form.\n    function updatePrice(uint256 _tokenId, uint256 _newPriceFinney) public onlyOwner {\n        Kudo memory _kudo = kudos[_tokenId];\n\n        _kudo.priceFinney = _newPriceFinney;\n        kudos[_tokenId] = _kudo;\n    }\n}",
  "sourcePath": "/Users/jhaas/repos/gitcoin-erc721/contracts/Kudos.sol",
  "compiler": {
    "name": "solc",
    "version": "0.4.24+commit.e67f0147.Emscripten.clang"
  },
  "schemaVersion": "2.0.1",
  "updatedAt": "2018-10-01T18:10:10.574Z"
}